{
  "contractName": "BProToken",
  "abi": [
    {
      "constant": true,
      "inputs": [],
      "name": "name",
      "outputs": [
        {
          "name": "",
          "type": "string"
        }
      ],
      "payable": false,
      "stateMutability": "view",
      "type": "function"
    },
    {
      "constant": false,
      "inputs": [
        {
          "name": "spender",
          "type": "address"
        },
        {
          "name": "value",
          "type": "uint256"
        }
      ],
      "name": "approve",
      "outputs": [
        {
          "name": "",
          "type": "bool"
        }
      ],
      "payable": false,
      "stateMutability": "nonpayable",
      "type": "function"
    },
    {
      "constant": true,
      "inputs": [],
      "name": "totalSupply",
      "outputs": [
        {
          "name": "",
          "type": "uint256"
        }
      ],
      "payable": false,
      "stateMutability": "view",
      "type": "function"
    },
    {
      "constant": false,
      "inputs": [
        {
          "name": "from",
          "type": "address"
        },
        {
          "name": "to",
          "type": "address"
        },
        {
          "name": "value",
          "type": "uint256"
        }
      ],
      "name": "transferFrom",
      "outputs": [
        {
          "name": "",
          "type": "bool"
        }
      ],
      "payable": false,
      "stateMutability": "nonpayable",
      "type": "function"
    },
    {
      "constant": true,
      "inputs": [],
      "name": "decimals",
      "outputs": [
        {
          "name": "",
          "type": "uint8"
        }
      ],
      "payable": false,
      "stateMutability": "view",
      "type": "function"
    },
    {
      "constant": false,
      "inputs": [
        {
          "name": "spender",
          "type": "address"
        },
        {
          "name": "addedValue",
          "type": "uint256"
        }
      ],
      "name": "increaseAllowance",
      "outputs": [
        {
          "name": "",
          "type": "bool"
        }
      ],
      "payable": false,
      "stateMutability": "nonpayable",
      "type": "function"
    },
    {
      "constant": false,
      "inputs": [],
      "name": "unpause",
      "outputs": [],
      "payable": false,
      "stateMutability": "nonpayable",
      "type": "function"
    },
    {
      "constant": false,
      "inputs": [
        {
          "name": "account",
          "type": "address"
        },
        {
          "name": "amount",
          "type": "uint256"
        }
      ],
      "name": "mint",
      "outputs": [
        {
          "name": "",
          "type": "bool"
        }
      ],
      "payable": false,
      "stateMutability": "nonpayable",
      "type": "function"
    },
    {
      "constant": true,
      "inputs": [
        {
          "name": "account",
          "type": "address"
        }
      ],
      "name": "isPauser",
      "outputs": [
        {
          "name": "",
          "type": "bool"
        }
      ],
      "payable": false,
      "stateMutability": "view",
      "type": "function"
    },
    {
      "constant": true,
      "inputs": [],
      "name": "paused",
      "outputs": [
        {
          "name": "",
          "type": "bool"
        }
      ],
      "payable": false,
      "stateMutability": "view",
      "type": "function"
    },
    {
      "constant": false,
      "inputs": [],
      "name": "renouncePauser",
      "outputs": [],
      "payable": false,
      "stateMutability": "nonpayable",
      "type": "function"
    },
    {
      "constant": true,
      "inputs": [
        {
          "name": "account",
          "type": "address"
        }
      ],
      "name": "balanceOf",
      "outputs": [
        {
          "name": "",
          "type": "uint256"
        }
      ],
      "payable": false,
      "stateMutability": "view",
      "type": "function"
    },
    {
      "constant": false,
      "inputs": [],
      "name": "renounceOwnership",
      "outputs": [],
      "payable": false,
      "stateMutability": "nonpayable",
      "type": "function"
    },
    {
      "constant": false,
      "inputs": [
        {
          "name": "account",
          "type": "address"
        }
      ],
      "name": "addPauser",
      "outputs": [],
      "payable": false,
      "stateMutability": "nonpayable",
      "type": "function"
    },
    {
      "constant": false,
      "inputs": [],
      "name": "pause",
      "outputs": [],
      "payable": false,
      "stateMutability": "nonpayable",
      "type": "function"
    },
    {
      "constant": true,
      "inputs": [],
      "name": "owner",
      "outputs": [
        {
          "name": "",
          "type": "address"
        }
      ],
      "payable": false,
      "stateMutability": "view",
      "type": "function"
    },
    {
      "constant": true,
      "inputs": [],
      "name": "isOwner",
      "outputs": [
        {
          "name": "",
          "type": "bool"
        }
      ],
      "payable": false,
      "stateMutability": "view",
      "type": "function"
    },
    {
      "constant": true,
      "inputs": [],
      "name": "symbol",
      "outputs": [
        {
          "name": "",
          "type": "string"
        }
      ],
      "payable": false,
      "stateMutability": "view",
      "type": "function"
    },
    {
      "constant": false,
      "inputs": [
        {
          "name": "account",
          "type": "address"
        }
      ],
      "name": "addMinter",
      "outputs": [],
      "payable": false,
      "stateMutability": "nonpayable",
      "type": "function"
    },
    {
      "constant": false,
      "inputs": [],
      "name": "renounceMinter",
      "outputs": [],
      "payable": false,
      "stateMutability": "nonpayable",
      "type": "function"
    },
    {
      "constant": false,
      "inputs": [
        {
          "name": "who",
          "type": "address"
        },
        {
          "name": "value",
          "type": "uint256"
        }
      ],
      "name": "burn",
      "outputs": [],
      "payable": false,
      "stateMutability": "nonpayable",
      "type": "function"
    },
    {
      "constant": false,
      "inputs": [
        {
          "name": "spender",
          "type": "address"
        },
        {
          "name": "subtractedValue",
          "type": "uint256"
        }
      ],
      "name": "decreaseAllowance",
      "outputs": [
        {
          "name": "",
          "type": "bool"
        }
      ],
      "payable": false,
      "stateMutability": "nonpayable",
      "type": "function"
    },
    {
      "constant": false,
      "inputs": [
        {
          "name": "to",
          "type": "address"
        },
        {
          "name": "value",
          "type": "uint256"
        }
      ],
      "name": "transfer",
      "outputs": [
        {
          "name": "",
          "type": "bool"
        }
      ],
      "payable": false,
      "stateMutability": "nonpayable",
      "type": "function"
    },
    {
      "constant": true,
      "inputs": [
        {
          "name": "account",
          "type": "address"
        }
      ],
      "name": "isMinter",
      "outputs": [
        {
          "name": "",
          "type": "bool"
        }
      ],
      "payable": false,
      "stateMutability": "view",
      "type": "function"
    },
    {
      "constant": true,
      "inputs": [
        {
          "name": "owner",
          "type": "address"
        },
        {
          "name": "spender",
          "type": "address"
        }
      ],
      "name": "allowance",
      "outputs": [
        {
          "name": "",
          "type": "uint256"
        }
      ],
      "payable": false,
      "stateMutability": "view",
      "type": "function"
    },
    {
      "constant": false,
      "inputs": [
        {
          "name": "newOwner",
          "type": "address"
        }
      ],
      "name": "transferOwnership",
      "outputs": [],
      "payable": false,
      "stateMutability": "nonpayable",
      "type": "function"
    },
    {
      "inputs": [],
      "payable": false,
      "stateMutability": "nonpayable",
      "type": "constructor"
    },
    {
      "payable": false,
      "stateMutability": "nonpayable",
      "type": "fallback"
    },
    {
      "anonymous": false,
      "inputs": [
        {
          "indexed": true,
          "name": "account",
          "type": "address"
        }
      ],
      "name": "MinterAdded",
      "type": "event"
    },
    {
      "anonymous": false,
      "inputs": [
        {
          "indexed": true,
          "name": "account",
          "type": "address"
        }
      ],
      "name": "MinterRemoved",
      "type": "event"
    },
    {
      "anonymous": false,
      "inputs": [
        {
          "indexed": false,
          "name": "account",
          "type": "address"
        }
      ],
      "name": "Paused",
      "type": "event"
    },
    {
      "anonymous": false,
      "inputs": [
        {
          "indexed": false,
          "name": "account",
          "type": "address"
        }
      ],
      "name": "Unpaused",
      "type": "event"
    },
    {
      "anonymous": false,
      "inputs": [
        {
          "indexed": true,
          "name": "account",
          "type": "address"
        }
      ],
      "name": "PauserAdded",
      "type": "event"
    },
    {
      "anonymous": false,
      "inputs": [
        {
          "indexed": true,
          "name": "account",
          "type": "address"
        }
      ],
      "name": "PauserRemoved",
      "type": "event"
    },
    {
      "anonymous": false,
      "inputs": [
        {
          "indexed": true,
          "name": "from",
          "type": "address"
        },
        {
          "indexed": true,
          "name": "to",
          "type": "address"
        },
        {
          "indexed": false,
          "name": "value",
          "type": "uint256"
        }
      ],
      "name": "Transfer",
      "type": "event"
    },
    {
      "anonymous": false,
      "inputs": [
        {
          "indexed": true,
          "name": "owner",
          "type": "address"
        },
        {
          "indexed": true,
          "name": "spender",
          "type": "address"
        },
        {
          "indexed": false,
          "name": "value",
          "type": "uint256"
        }
      ],
      "name": "Approval",
      "type": "event"
    },
    {
      "anonymous": false,
      "inputs": [
        {
          "indexed": true,
          "name": "previousOwner",
          "type": "address"
        },
        {
          "indexed": true,
          "name": "newOwner",
          "type": "address"
        }
      ],
      "name": "OwnershipTransferred",
      "type": "event"
    }
  ],
  "bytecode": "0x60c0604052600660808190527f42697450524f000000000000000000000000000000000000000000000000000060a09081526200004091600a91906200045c565b506040805180820190915260048082527f424954500000000000000000000000000000000000000000000000000000000060209092019182526200008791600b916200045c565b50600c805460ff19166012179055348015620000a257600080fd5b50600a805460408051602060026001851615610100026000190190941693909304601f810184900484028201840190925281815292918301828280156200012d5780601f1062000101576101008083540402835291602001916200012d565b820191906000526020600020905b8154815290600101906020018083116200010f57829003601f168201915b5050600b8054604080516020601f6002600019610100600188161502019095169490940493840181900481028201810190925282815295509193509150830182828015620001bf5780601f106200019357610100808354040283529160200191620001bf565b820191906000526020600020905b815481529060010190602001808311620001a157829003601f168201915b5050600c5460008054600160a060020a031916331780825560405160ff9093169550600160a060020a0316935091507f8be0079c531659141344cd1fd0a4f28419497f9722a3daafe3b4186f6b6457e0908290a38251620002289060019060208601906200045c565b5081516200023e9060029060208501906200045c565b506003805460ff191660ff92909216919091179055506200026a9050336401000000006200028e810204565b6008805460ff191690556200028833640100000000620002e0810204565b62000501565b620002a96007826401000000006200140b6200033282021704565b604051600160a060020a038216907f6719d08c1888103bea251a4ed56406bd0c3e69723c8a1686e017e7bbe159b6f890600090a250565b620002fb6009826401000000006200140b6200033282021704565b604051600160a060020a038216907f6ae172837ea30b801fbfcdd4108aa1d5bf8ff775444fd70256b44e6bf3dfc3f690600090a250565b620003478282640100000000620003d9810204565b15620003b457604080517f08c379a000000000000000000000000000000000000000000000000000000000815260206004820152601f60248201527f526f6c65733a206163636f756e7420616c72656164792068617320726f6c6500604482015290519081900360640190fd5b600160a060020a0316600090815260209190915260409020805460ff19166001179055565b6000600160a060020a0382166200043c576040517f08c379a000000000000000000000000000000000000000000000000000000000815260040180806020018281038252602281526020018062001bc46022913960400191505060405180910390fd5b50600160a060020a03166000908152602091909152604090205460ff1690565b828054600181600116156101000203166002900490600052602060002090601f016020900481019282601f106200049f57805160ff1916838001178555620004cf565b82800160010185558215620004cf579182015b82811115620004cf578251825591602001919060010190620004b2565b50620004dd929150620004e1565b5090565b620004fe91905b80821115620004dd5760008155600101620004e8565b90565b6116b380620005116000396000f3fe608060405234801561001057600080fd5b50600436106101415760e060020a600035046306fdde038114610143578063095ea7b3146101c057806318160ddd1461020057806323b872dd1461021a578063313ce56714610250578063395093511461026e5780633f4ba83a1461029a57806340c10f19146102a257806346fbf68e146102ce5780635c975abb146102f45780636ef8d66d146102fc57806370a0823114610304578063715018a61461032a57806382dc1ec4146103325780638456cb59146103585780638da5cb5b146103605780638f32d59b1461038457806395d89b411461038c578063983b2d561461039457806398650275146103ba5780639dc29fac146103c2578063a457c2d7146103ee578063a9059cbb1461041a578063aa271e1a14610446578063dd62ed3e1461046c578063f2fde38b1461049a575b005b61014b6104c0565b6040805160208082528351818301528351919283929083019185019080838360005b8381101561018557818101518382015260200161016d565b50505050905090810190601f1680156101b25780820380516001836020036101000a031916815260200191505b509250505060405180910390f35b6101ec600480360360408110156101d657600080fd5b50600160a060020a038135169060200135610555565b604080519115158252519081900360200190f35b6102086105b2565b60408051918252519081900360200190f35b6101ec6004803603606081101561023057600080fd5b50600160a060020a038135811691602081013590911690604001356105b8565b610258610617565b6040805160ff9092168252519081900360200190f35b6101ec6004803603604081101561028457600080fd5b50600160a060020a038135169060200135610620565b610141610676565b6101ec600480360360408110156102b857600080fd5b50600160a060020a038135169060200135610750565b6101ec600480360360208110156102e457600080fd5b5035600160a060020a03166107ac565b6101ec6107c5565b6101416107ce565b6102086004803603602081101561031a57600080fd5b5035600160a060020a03166107d9565b6101416107f4565b6101416004803603602081101561034857600080fd5b5035600160a060020a0316610876565b6101416108c9565b61036861099b565b60408051600160a060020a039092168252519081900360200190f35b6101ec6109aa565b61014b6109bb565b610141600480360360208110156103aa57600080fd5b5035600160a060020a0316610a19565b610141610a69565b610141600480360360408110156103d857600080fd5b50600160a060020a038135169060200135610a72565b6101ec6004803603604081101561040457600080fd5b50600160a060020a038135169060200135610aca565b6101ec6004803603604081101561043057600080fd5b50600160a060020a038135169060200135610b20565b6101ec6004803603602081101561045c57600080fd5b5035600160a060020a0316610b76565b6102086004803603604081101561048257600080fd5b50600160a060020a0381358116916020013516610b89565b610141600480360360208110156104b057600080fd5b5035600160a060020a0316610bb4565b60018054604080516020601f6002600019610100878916150201909516949094049384018190048102820181019092528281526060939092909183018282801561054b5780601f106105205761010080835404028352916020019161054b565b820191906000526020600020905b81548152906001019060200180831161052e57829003601f168201915b5050505050905090565b60085460009060ff16156105a1576040805160e560020a62461bcd0281526020600482015260106024820152600080516020611644833981519152604482015290519081900360640190fd5b6105ab8383610c07565b9392505050565b60065490565b60085460009060ff1615610604576040805160e560020a62461bcd0281526020600482015260106024820152600080516020611644833981519152604482015290519081900360640190fd5b61060f848484610c14565b949350505050565b60035460ff1690565b60085460009060ff161561066c576040805160e560020a62461bcd0281526020600482015260106024820152600080516020611644833981519152604482015290519081900360640190fd5b6105ab8383610c6b565b61067f336107ac565b6106bd5760405160e560020a62461bcd0281526004018080602001828103825260308152602001806114b36030913960400191505060405180910390fd5b60085460ff16610711576040805160e560020a62461bcd0281526020600482015260146024820152606260020a7314185d5cd8589b194e881b9bdd081c185d5cd95902604482015290519081900360640190fd5b6008805460ff191690556040805133815290517f5db9ee0a495bf2e6ff9c91a7834c1ba4fdd244a5e8aa4e537bd38aeae4b073aa9181900360200190a1565b600061075b33610b76565b6107995760405160e560020a62461bcd02815260040180806020018281038252603081526020018061152b6030913960400191505060405180910390fd5b6107a38383610ca7565b50600192915050565b60006107bf60078363ffffffff610d8a16565b92915050565b60085460ff1690565b6107d733610df4565b565b600160a060020a031660009081526004602052604090205490565b6107fc6109aa565b61083e576040805160e560020a62461bcd028152602060048201819052602482015260008051602061157c833981519152604482015290519081900360640190fd5b60008054604051600160a060020a039091169060008051602061159c833981519152908390a360008054600160a060020a0319169055565b61087f336107ac565b6108bd5760405160e560020a62461bcd0281526004018080602001828103825260308152602001806114b36030913960400191505060405180910390fd5b6108c681610e3c565b50565b6108d2336107ac565b6109105760405160e560020a62461bcd0281526004018080602001828103825260308152602001806114b36030913960400191505060405180910390fd5b60085460ff1615610959576040805160e560020a62461bcd0281526020600482015260106024820152600080516020611644833981519152604482015290519081900360640190fd5b6008805460ff191660011790556040805133815290517f62e78cea01bee320cd4e420270b5ea74000d11b0c9f74754ebdbfc544b05a2589181900360200190a1565b600054600160a060020a031690565b600054600160a060020a0316331490565b60028054604080516020601f600019610100600187161502019094168590049384018190048102820181019092528281526060939092909183018282801561054b5780601f106105205761010080835404028352916020019161054b565b610a2233610b76565b610a605760405160e560020a62461bcd02815260040180806020018281038252603081526020018061152b6030913960400191505060405180910390fd5b6108c681610e84565b6107d733610ecc565b610a7a6109aa565b610abc576040805160e560020a62461bcd028152602060048201819052602482015260008051602061157c833981519152604482015290519081900360640190fd5b610ac68282610f14565b5050565b60085460009060ff1615610b16576040805160e560020a62461bcd0281526020600482015260106024820152600080516020611644833981519152604482015290519081900360640190fd5b6105ab8383610fe0565b60085460009060ff1615610b6c576040805160e560020a62461bcd0281526020600482015260106024820152600080516020611644833981519152604482015290519081900360640190fd5b6105ab838361101c565b60006107bf60098363ffffffff610d8a16565b600160a060020a03918216600090815260056020908152604080832093909416825291909152205490565b610bbc6109aa565b610bfe576040805160e560020a62461bcd028152602060048201819052602482015260008051602061157c833981519152604482015290519081900360640190fd5b6108c681611029565b60006107a33384846110ba565b6000610c218484846111ac565b600160a060020a038416600090815260056020908152604080832033808552925290912054610c61918691610c5c908663ffffffff6112e416565b6110ba565b5060019392505050565b336000818152600560209081526040808320600160a060020a038716845290915281205490916107a3918590610c5c908663ffffffff61134416565b600160a060020a038216610d05576040805160e560020a62461bcd02815260206004820152601f60248201527f45524332303a206d696e7420746f20746865207a65726f206164647265737300604482015290519081900360640190fd5b600654610d18908263ffffffff61134416565b600655600160a060020a038216600090815260046020526040902054610d44908263ffffffff61134416565b600160a060020a03831660008181526004602090815260408083209490945583518581529351929391926000805160206115de8339815191529281900390910190a35050565b6000600160a060020a038216610dd45760405160e560020a62461bcd0281526004018080602001828103825260228152602001806115bc6022913960400191505060405180910390fd5b50600160a060020a03166000908152602091909152604090205460ff1690565b610e0560078263ffffffff6113a116565b604051600160a060020a038216907fcd265ebaf09df2871cc7bd4133404a235ba12eff2041bb89d9c714a2621c7c7e90600090a250565b610e4d60078263ffffffff61140b16565b604051600160a060020a038216907f6719d08c1888103bea251a4ed56406bd0c3e69723c8a1686e017e7bbe159b6f890600090a250565b610e9560098263ffffffff61140b16565b604051600160a060020a038216907f6ae172837ea30b801fbfcdd4108aa1d5bf8ff775444fd70256b44e6bf3dfc3f690600090a250565b610edd60098263ffffffff6113a116565b604051600160a060020a038216907fe94479a9f7e1952cc78f2d6baab678adc1b772d936c6583def489e524cb6669290600090a250565b600160a060020a038216610f5c5760405160e560020a62461bcd0281526004018080602001828103825260218152602001806115fe6021913960400191505060405180910390fd5b600654610f6f908263ffffffff6112e416565b600655600160a060020a038216600090815260046020526040902054610f9b908263ffffffff6112e416565b600160a060020a0383166000818152600460209081526040808320949094558351858152935191936000805160206115de833981519152929081900390910190a35050565b336000818152600560209081526040808320600160a060020a038716845290915281205490916107a3918590610c5c908663ffffffff6112e416565b60006107a33384846111ac565b600160a060020a0381166110715760405160e560020a62461bcd0281526004018080602001828103825260268152602001806114e36026913960400191505060405180910390fd5b60008054604051600160a060020a038085169392169160008051602061159c83398151915291a360008054600160a060020a031916600160a060020a0392909216919091179055565b600160a060020a0383166111025760405160e560020a62461bcd0281526004018080602001828103825260248152602001806116646024913960400191505060405180910390fd5b600160a060020a03821661114a5760405160e560020a62461bcd0281526004018080602001828103825260228152602001806115096022913960400191505060405180910390fd5b600160a060020a03808416600081815260056020908152604080832094871680845294825291829020859055815185815291517f8c5be1e5ebec7d5bd14f71427d1e84f3dd0314c0f7b2291e5b200ac8c7c3b9259281900390910190a3505050565b600160a060020a0383166111f45760405160e560020a62461bcd02815260040180806020018281038252602581526020018061161f6025913960400191505060405180910390fd5b600160a060020a03821661123c5760405160e560020a62461bcd0281526004018080602001828103825260238152602001806114906023913960400191505060405180910390fd5b600160a060020a038316600090815260046020526040902054611265908263ffffffff6112e416565b600160a060020a03808516600090815260046020526040808220939093559084168152205461129a908263ffffffff61134416565b600160a060020a0380841660008181526004602090815260409182902094909455805185815290519193928716926000805160206115de83398151915292918290030190a3505050565b60008282111561133e576040805160e560020a62461bcd02815260206004820152601e60248201527f536166654d6174683a207375627472616374696f6e206f766572666c6f770000604482015290519081900360640190fd5b50900390565b6000828201838110156105ab576040805160e560020a62461bcd02815260206004820152601b60248201527f536166654d6174683a206164646974696f6e206f766572666c6f770000000000604482015290519081900360640190fd5b6113ab8282610d8a565b6113e95760405160e560020a62461bcd02815260040180806020018281038252602181526020018061155b6021913960400191505060405180910390fd5b600160a060020a0316600090815260209190915260409020805460ff19169055565b6114158282610d8a565b1561146a576040805160e560020a62461bcd02815260206004820152601f60248201527f526f6c65733a206163636f756e7420616c72656164792068617320726f6c6500604482015290519081900360640190fd5b600160a060020a0316600090815260209190915260409020805460ff1916600117905556fe45524332303a207472616e7366657220746f20746865207a65726f2061646472657373506175736572526f6c653a2063616c6c657220646f6573206e6f742068617665207468652050617573657220726f6c654f776e61626c653a206e6577206f776e657220697320746865207a65726f206164647265737345524332303a20617070726f766520746f20746865207a65726f20616464726573734d696e746572526f6c653a2063616c6c657220646f6573206e6f74206861766520746865204d696e74657220726f6c65526f6c65733a206163636f756e7420646f6573206e6f74206861766520726f6c654f776e61626c653a2063616c6c6572206973206e6f7420746865206f776e65728be0079c531659141344cd1fd0a4f28419497f9722a3daafe3b4186f6b6457e0526f6c65733a206163636f756e7420697320746865207a65726f2061646472657373ddf252ad1be2c89b69c2b068fc378daa952ba7f163c4a11628f55a4df523b3ef45524332303a206275726e2066726f6d20746865207a65726f206164647265737345524332303a207472616e736665722066726f6d20746865207a65726f20616464726573735061757361626c653a207061757365640000000000000000000000000000000045524332303a20617070726f76652066726f6d20746865207a65726f2061646472657373a165627a7a723058205b7bab817662f1e44dfaa79cf8589b2be739f258d5b90a3860ea912411a2872a0029526f6c65733a206163636f756e7420697320746865207a65726f2061646472657373",
  "source": "pragma solidity 0.5.8;\n\nimport \"openzeppelin-solidity/contracts/token/ERC20/ERC20Detailed.sol\";\nimport \"openzeppelin-solidity/contracts/token/ERC20/ERC20Pausable.sol\";\nimport \"./OwnerBurnableToken.sol\";\n\ncontract BProToken is ERC20Detailed, ERC20Pausable, OwnerBurnableToken {\n\n  string private _name = \"BitPRO\";\n  string private _symbol = \"BITP\";\n  uint8 private _decimals = 18;\n\n  constructor() Ownable() ERC20Detailed(_name, _symbol, _decimals) public {\n  }\n\n  //Fallback\n  function() external {\n  }\n}\n",
  "sourcePath": "/home/bruno/Proyectos/Cripto/MoC/main-RBTC-contract/contracts/token/BProToken.sol",
  "compiler": {
    "name": "solc",
    "version": "0.5.8+commit.23d335f2.Emscripten.clang"
  },
  "schemaVersion": "3.0.11",
  "updatedAt": "2020-05-02T13:11:46.786Z",
  "devdoc": {
    "methods": {
      "allowance(address,address)": {
        "details": "See `IERC20.allowance`."
      },
      "balanceOf(address)": {
        "details": "See `IERC20.balanceOf`."
      },
      "burn(address,uint256)": {
        "details": "Burns a specific amount of tokens for the address.",
        "params": {
          "value": "The amount of token to be burned.",
          "who": "who's tokens are gona be burned"
        }
      },
      "decimals()": {
        "details": "Returns the number of decimals used to get its user representation. For example, if `decimals` equals `2`, a balance of `505` tokens should be displayed to a user as `5,05` (`505 / 10 ** 2`).     * Tokens usually opt for a value of 18, imitating the relationship between Ether and Wei.     * > Note that this information is only used for _display_ purposes: it in no way affects any of the arithmetic of the contract, including `IERC20.balanceOf` and `IERC20.transfer`."
      },
      "isOwner()": {
        "details": "Returns true if the caller is the current owner."
      },
      "mint(address,uint256)": {
        "details": "See `ERC20._mint`.     * Requirements:     * - the caller must have the `MinterRole`."
      },
      "name()": {
        "details": "Returns the name of the token."
      },
      "owner()": {
        "details": "Returns the address of the current owner."
      },
      "pause()": {
        "details": "Called by a pauser to pause, triggers stopped state."
      },
      "paused()": {
        "details": "Returns true if the contract is paused, and false otherwise."
      },
      "renounceOwnership()": {
        "details": "Leaves the contract without owner. It will not be possible to call `onlyOwner` functions anymore. Can only be called by the current owner.     * > Note: Renouncing ownership will leave the contract without an owner, thereby removing any functionality that is only available to the owner."
      },
      "symbol()": {
        "details": "Returns the symbol of the token, usually a shorter version of the name."
      },
      "totalSupply()": {
        "details": "See `IERC20.totalSupply`."
      },
      "transferOwnership(address)": {
        "details": "Transfers ownership of the contract to a new account (`newOwner`). Can only be called by the current owner."
      },
      "unpause()": {
        "details": "Called by a pauser to unpause, returns to normal state."
      }
    }
  },
  "userdoc": {
    "methods": {}
  }
}