{
  "contractName": "MoCBProxManager",
  "abi": [
    {
      "constant": true,
      "inputs": [
        {
          "name": "bucket",
          "type": "bytes32"
        }
      ],
      "name": "getBucketNBPro",
      "outputs": [
        {
          "name": "",
          "type": "uint256"
        }
      ],
      "payable": false,
      "stateMutability": "view",
      "type": "function"
    },
    {
      "constant": true,
      "inputs": [],
      "name": "governor",
      "outputs": [
        {
          "name": "",
          "type": "address"
        }
      ],
      "payable": false,
      "stateMutability": "view",
      "type": "function"
    },
    {
      "constant": true,
      "inputs": [
        {
          "name": "bucket",
          "type": "bytes32"
        }
      ],
      "name": "getActiveAddresses",
      "outputs": [
        {
          "name": "",
          "type": "address[]"
        }
      ],
      "payable": false,
      "stateMutability": "view",
      "type": "function"
    },
    {
      "constant": false,
      "inputs": [
        {
          "name": "bucketName",
          "type": "bytes32"
        },
        {
          "name": "btc",
          "type": "uint256"
        },
        {
          "name": "doc",
          "type": "uint256"
        },
        {
          "name": "bprox",
          "type": "uint256"
        }
      ],
      "name": "substractValuesFromBucket",
      "outputs": [],
      "payable": false,
      "stateMutability": "nonpayable",
      "type": "function"
    },
    {
      "constant": false,
      "inputs": [
        {
          "name": "toLiquidate",
          "type": "bytes32"
        },
        {
          "name": "destination",
          "type": "bytes32"
        }
      ],
      "name": "liquidateBucket",
      "outputs": [],
      "payable": false,
      "stateMutability": "nonpayable",
      "type": "function"
    },
    {
      "constant": false,
      "inputs": [
        {
          "name": "bucketName",
          "type": "bytes32"
        },
        {
          "name": "amount",
          "type": "uint256"
        }
      ],
      "name": "deliverInrate",
      "outputs": [],
      "payable": false,
      "stateMutability": "nonpayable",
      "type": "function"
    },
    {
      "constant": true,
      "inputs": [
        {
          "name": "bucket",
          "type": "bytes32"
        }
      ],
      "name": "getActiveAddressesCount",
      "outputs": [
        {
          "name": "count",
          "type": "uint256"
        }
      ],
      "payable": false,
      "stateMutability": "view",
      "type": "function"
    },
    {
      "constant": true,
      "inputs": [],
      "name": "BUCKET_X2",
      "outputs": [
        {
          "name": "",
          "type": "bytes32"
        }
      ],
      "payable": false,
      "stateMutability": "view",
      "type": "function"
    },
    {
      "constant": false,
      "inputs": [
        {
          "name": "bucketName",
          "type": "bytes32"
        },
        {
          "name": "amount",
          "type": "uint256"
        }
      ],
      "name": "recoverInrate",
      "outputs": [
        {
          "name": "",
          "type": "uint256"
        }
      ],
      "payable": false,
      "stateMutability": "nonpayable",
      "type": "function"
    },
    {
      "constant": true,
      "inputs": [
        {
          "name": "bucket",
          "type": "bytes32"
        }
      ],
      "name": "isBucketBase",
      "outputs": [
        {
          "name": "",
          "type": "bool"
        }
      ],
      "payable": false,
      "stateMutability": "view",
      "type": "function"
    },
    {
      "constant": true,
      "inputs": [
        {
          "name": "bucket",
          "type": "bytes32"
        }
      ],
      "name": "getBucketNDoc",
      "outputs": [
        {
          "name": "",
          "type": "uint256"
        }
      ],
      "payable": false,
      "stateMutability": "view",
      "type": "function"
    },
    {
      "constant": false,
      "inputs": [
        {
          "name": "bucketName",
          "type": "bytes32"
        },
        {
          "name": "btcAmount",
          "type": "uint256"
        }
      ],
      "name": "payInrate",
      "outputs": [],
      "payable": false,
      "stateMutability": "nonpayable",
      "type": "function"
    },
    {
      "constant": true,
      "inputs": [],
      "name": "connector",
      "outputs": [
        {
          "name": "",
          "type": "address"
        }
      ],
      "payable": false,
      "stateMutability": "view",
      "type": "function"
    },
    {
      "constant": true,
      "inputs": [
        {
          "name": "bucket",
          "type": "bytes32"
        }
      ],
      "name": "getInrateBag",
      "outputs": [
        {
          "name": "",
          "type": "uint256"
        }
      ],
      "payable": false,
      "stateMutability": "view",
      "type": "function"
    },
    {
      "constant": false,
      "inputs": [
        {
          "name": "_bucket",
          "type": "bytes32"
        },
        {
          "name": "_cobj",
          "type": "uint256"
        }
      ],
      "name": "setBucketCobj",
      "outputs": [],
      "payable": false,
      "stateMutability": "nonpayable",
      "type": "function"
    },
    {
      "constant": true,
      "inputs": [
        {
          "name": "bucket",
          "type": "bytes32"
        }
      ],
      "name": "isBucketEmpty",
      "outputs": [
        {
          "name": "",
          "type": "bool"
        }
      ],
      "payable": false,
      "stateMutability": "view",
      "type": "function"
    },
    {
      "constant": false,
      "inputs": [
        {
          "name": "bucketName",
          "type": "bytes32"
        },
        {
          "name": "btc",
          "type": "uint256"
        },
        {
          "name": "doc",
          "type": "uint256"
        },
        {
          "name": "bprox",
          "type": "uint256"
        }
      ],
      "name": "addValuesToBucket",
      "outputs": [],
      "payable": false,
      "stateMutability": "nonpayable",
      "type": "function"
    },
    {
      "constant": true,
      "inputs": [
        {
          "name": "bucket",
          "type": "bytes32"
        }
      ],
      "name": "getBucketCobj",
      "outputs": [
        {
          "name": "",
          "type": "uint256"
        }
      ],
      "payable": false,
      "stateMutability": "view",
      "type": "function"
    },
    {
      "constant": false,
      "inputs": [
        {
          "name": "newIGovernor",
          "type": "address"
        }
      ],
      "name": "changeIGovernor",
      "outputs": [],
      "payable": false,
      "stateMutability": "nonpayable",
      "type": "function"
    },
    {
      "constant": false,
      "inputs": [
        {
          "name": "origin",
          "type": "bytes32"
        },
        {
          "name": "destination",
          "type": "bytes32"
        }
      ],
      "name": "emptyBucket",
      "outputs": [],
      "payable": false,
      "stateMutability": "nonpayable",
      "type": "function"
    },
    {
      "constant": true,
      "inputs": [
        {
          "name": "bucket",
          "type": "bytes32"
        }
      ],
      "name": "getBucketNBTC",
      "outputs": [
        {
          "name": "",
          "type": "uint256"
        }
      ],
      "payable": false,
      "stateMutability": "view",
      "type": "function"
    },
    {
      "constant": false,
      "inputs": [
        {
          "name": "bucketName",
          "type": "bytes32"
        }
      ],
      "name": "clearBucketBalances",
      "outputs": [],
      "payable": false,
      "stateMutability": "nonpayable",
      "type": "function"
    },
    {
      "constant": false,
      "inputs": [
        {
          "name": "from",
          "type": "bytes32"
        },
        {
          "name": "to",
          "type": "bytes32"
        },
        {
          "name": "btc",
          "type": "uint256"
        },
        {
          "name": "docs",
          "type": "uint256"
        }
      ],
      "name": "moveBtcAndDocs",
      "outputs": [],
      "payable": false,
      "stateMutability": "nonpayable",
      "type": "function"
    },
    {
      "constant": true,
      "inputs": [],
      "name": "BUCKET_C0",
      "outputs": [
        {
          "name": "",
          "type": "bytes32"
        }
      ],
      "payable": false,
      "stateMutability": "view",
      "type": "function"
    },
    {
      "constant": true,
      "inputs": [
        {
          "name": "bucket",
          "type": "bytes32"
        }
      ],
      "name": "isAvailableBucket",
      "outputs": [
        {
          "name": "",
          "type": "bool"
        }
      ],
      "payable": false,
      "stateMutability": "view",
      "type": "function"
    },
    {
      "anonymous": false,
      "inputs": [
        {
          "indexed": false,
          "name": "from",
          "type": "bytes32"
        },
        {
          "indexed": false,
          "name": "to",
          "type": "bytes32"
        },
        {
          "indexed": false,
          "name": "reserves",
          "type": "uint256"
        },
        {
          "indexed": false,
          "name": "stableTokens",
          "type": "uint256"
        }
      ],
      "name": "BucketMovement",
      "type": "event"
    },
    {
      "anonymous": false,
      "inputs": [
        {
          "indexed": false,
          "name": "name",
          "type": "bytes32"
        },
        {
          "indexed": false,
          "name": "cobj",
          "type": "uint256"
        }
      ],
      "name": "BucketCreation",
      "type": "event"
    },
    {
      "anonymous": false,
      "inputs": [
        {
          "indexed": false,
          "name": "name",
          "type": "bytes32"
        },
        {
          "indexed": false,
          "name": "nReserve",
          "type": "uint256"
        },
        {
          "indexed": false,
          "name": "nStable",
          "type": "uint256"
        },
        {
          "indexed": false,
          "name": "nRiskProx",
          "type": "uint256"
        },
        {
          "indexed": false,
          "name": "inrateBag",
          "type": "uint256"
        }
      ],
      "name": "BucketStateUpdate",
      "type": "event"
    },
    {
      "constant": false,
      "inputs": [
        {
          "name": "_governor",
          "type": "address"
        }
      ],
      "name": "initialize",
      "outputs": [],
      "payable": false,
      "stateMutability": "nonpayable",
      "type": "function"
    },
    {
      "constant": false,
      "inputs": [
        {
          "name": "connectorAddress",
          "type": "address"
        },
        {
          "name": "_governor",
          "type": "address"
        },
        {
          "name": "_c0Cobj",
          "type": "uint256"
        },
        {
          "name": "_x2Cobj",
          "type": "uint256"
        }
      ],
      "name": "initialize",
      "outputs": [],
      "payable": false,
      "stateMutability": "nonpayable",
      "type": "function"
    },
    {
      "constant": true,
      "inputs": [
        {
          "name": "bucket",
          "type": "bytes32"
        },
        {
          "name": "userAddress",
          "type": "address"
        }
      ],
      "name": "bproxBalanceOf",
      "outputs": [
        {
          "name": "",
          "type": "uint256"
        }
      ],
      "payable": false,
      "stateMutability": "view",
      "type": "function"
    },
    {
      "constant": true,
      "inputs": [
        {
          "name": "bucket",
          "type": "bytes32"
        },
        {
          "name": "userAddress",
          "type": "address"
        },
        {
          "name": "index",
          "type": "uint256"
        }
      ],
      "name": "hasValidBalance",
      "outputs": [
        {
          "name": "",
          "type": "bool"
        }
      ],
      "payable": false,
      "stateMutability": "view",
      "type": "function"
    },
    {
      "constant": false,
      "inputs": [
        {
          "name": "bucket",
          "type": "bytes32"
        },
        {
          "name": "account",
          "type": "address"
        },
        {
          "name": "bproxAmount",
          "type": "uint256"
        },
        {
          "name": "totalCost",
          "type": "uint256"
        }
      ],
      "name": "assignBProx",
      "outputs": [],
      "payable": false,
      "stateMutability": "nonpayable",
      "type": "function"
    },
    {
      "constant": false,
      "inputs": [
        {
          "name": "bucket",
          "type": "bytes32"
        },
        {
          "name": "userAddress",
          "type": "address"
        },
        {
          "name": "bproxAmount",
          "type": "uint256"
        },
        {
          "name": "totalCost",
          "type": "uint256"
        }
      ],
      "name": "removeBProx",
      "outputs": [],
      "payable": false,
      "stateMutability": "nonpayable",
      "type": "function"
    },
    {
      "constant": false,
      "inputs": [
        {
          "name": "bucket",
          "type": "bytes32"
        },
        {
          "name": "userAddress",
          "type": "address"
        },
        {
          "name": "value",
          "type": "uint256"
        }
      ],
      "name": "setBProxBalanceOf",
      "outputs": [],
      "payable": false,
      "stateMutability": "nonpayable",
      "type": "function"
    }
  ],
  "bytecode": "0x608060405234801561001057600080fd5b506120cd806100206000396000f3fe608060405234801561001057600080fd5b50600436106101835760e060020a600035046304bda17f81146101885780630c340a24146101b75780630efae5f4146101db578063119e2ad61461024857806315d1b0d6146102795780632ed80a591461029c5780633b6daf06146102d457806346a9d303146102f757806357a13a16146103145780635e6c57cf1461031c578063633ba2881461033f57806367c8bcf9146103705780636edc2ccc1461038d57806383f3084f146103b0578063889d9b64146103b857806397f773e6146103d55780639dafe38814610401578063a9e61b4f14610424578063ab9757c014610441578063acae2e7a14610470578063b398eb21146104a2578063b6e08330146104bf578063c4d66de8146104e5578063c95e74621461050b578063c9c9a5a014610543578063cdb5077114610566578063d4497d2a14610583578063de1378d4146105a0578063e22155f6146105cf578063eb990c59146105d7578063ed7dfd3214610613578063fe9c6e4314610630575b600080fd5b6101a56004803603602081101561019e57600080fd5b5035610662565b60408051918252519081900360200190f35b6101bf610677565b60408051600160a060020a039092168252519081900360200190f35b6101f8600480360360208110156101f157600080fd5b5035610686565b60408051602080825283518183015283519192839290830191858101910280838360005b8381101561023457818101518382015260200161021c565b505050509050019250505060405180910390f35b6102776004803603608081101561025e57600080fd5b50803590602081013590604081013590606001356106f5565b005b6102776004803603604081101561028f57600080fd5b5080359060200135610817565b610277600480360360808110156102b257600080fd5b50803590600160a060020a03602082013516906040810135906060013561094b565b610277600480360360408110156102ea57600080fd5b5080359060200135610a46565b6101a56004803603602081101561030d57600080fd5b5035610c0b565b6101a5610c20565b6101a56004803603604081101561033257600080fd5b5080359060200135610c2c565b61035c6004803603602081101561035557600080fd5b5035610ddc565b604080519115158252519081900360200190f35b6101a56004803603602081101561038657600080fd5b5035610df4565b610277600480360360408110156103a357600080fd5b5080359060200135610e09565b6101bf610f3e565b6101a5600480360360208110156103ce57600080fd5b5035610f4d565b6101a5600480360360408110156103eb57600080fd5b5080359060200135600160a060020a0316610f62565b6102776004803603604081101561041757600080fd5b5080359060200135610fce565b61035c6004803603602081101561043a57600080fd5b503561111a565b6102776004803603608081101561045757600080fd5b5080359060208101359060408101359060600135611130565b6102776004803603606081101561048657600080fd5b50803590600160a060020a036020820135169060400135611245565b6101a5600480360360208110156104b857600080fd5b50356114ed565b610277600480360360208110156104d557600080fd5b5035600160a060020a0316611502565b610277600480360360208110156104fb57600080fd5b5035600160a060020a031661161e565b6102776004803603608081101561052157600080fd5b50803590600160a060020a0360208201351690604081013590606001356116df565b6102776004803603604081101561055957600080fd5b50803590602001356117cd565b6101a56004803603602081101561057c57600080fd5b50356118b2565b6102776004803603602081101561059957600080fd5b50356118c7565b610277600480360360808110156105b657600080fd5b50803590602081013590604081013590606001356119a1565b6101a5611bf3565b610277600480360360808110156105ed57600080fd5b50600160a060020a03813581169160208101359091169060408101359060600135611bff565b61035c6004803603602081101561062957600080fd5b5035611ce2565b61035c6004803603606081101561064657600080fd5b50803590600160a060020a036020820135169060400135611cfa565b60009081526099602052604090206003015490565b606654600160a060020a031681565b6000818152609960209081526040918290206007018054835181840281018401909452808452606093928301828280156106e957602002820191906000526020600020905b8154600160a060020a031681526001909101906020018083116106cb575b50505050509050919050565b6033546040805160e060020a633af32abf028152336004820181905291519192600160a060020a031691633af32abf91602480820192602092909190829003018186803b15801561074557600080fd5b505afa158015610759573d6000803e3d6000fd5b505050506040513d602081101561076f57600080fd5b50516107b3576040805160e560020a62461bcd02815260206004820152601a6024820152600080516020612054833981519152604482015290519081900360640190fd5b600085815260996020526040902060048101546107d6908663ffffffff611d6616565b600482015560028101546107f0908563ffffffff611d6616565b6002820155600381015461080a908463ffffffff611d6616565b6003909101555050505050565b6033546040805160e060020a633af32abf028152336004820181905291519192600160a060020a031691633af32abf91602480820192602092909190829003018186803b15801561086757600080fd5b505afa15801561087b573d6000803e3d6000fd5b505050506040513d602081101561089157600080fd5b50516108d5576040805160e560020a62461bcd02815260206004820152601a6024820152600080516020612054833981519152604482015290519081900360640190fd5b6108de83610ddc565b15610933576040805160e560020a62461bcd02815260206004820152601e60248201527f43616e6e6f74206c697175696461746520612062617365206275636b65740000604482015290519081900360640190fd5b61093c836118c7565b61094683836117cd565b505050565b6033546040805160e060020a633af32abf028152336004820181905291519192600160a060020a031691633af32abf91602480820192602092909190829003018186803b15801561099b57600080fd5b505afa1580156109af573d6000803e3d6000fd5b505050506040513d60208110156109c557600080fd5b5051610a09576040805160e560020a62461bcd02815260206004820152601a6024820152600080516020612054833981519152604482015290519081900360640190fd5b6000610a158686610f62565b9050610a318686610a2c848863ffffffff611dc616565b611245565b610a3e8684600087611130565b505050505050565b6033546040805160e060020a633af32abf028152336004820181905291519192600160a060020a031691633af32abf91602480820192602092909190829003018186803b158015610a9657600080fd5b505afa158015610aaa573d6000803e3d6000fd5b505050506040513d6020811015610ac057600080fd5b5051610b04576040805160e560020a62461bcd02815260206004820152601a6024820152600080516020612054833981519152604482015290519081900360640190fd5b82610b0e81610ddc565b610b4c5760405160e560020a62461bcd0281526004018080602001828103825260238152602001806120116023913960400191505060405180910390fd5b60008481526099602052604081206009810154869290610b6c9087611e2a565b6009830154909150610b84908263ffffffff611d6616565b60098301556004820154610b9e908263ffffffff611dc616565b6004928301555060008281526099602090815260409182902092830154600284015460038501546009909501548451878152938401929092528284015260608201939093526080810192909252516000805160206120348339815191529181900360a00190a15050505050565b60009081526099602052604090206008015490565b60f160020a612c190281565b6033546040805160e060020a633af32abf02815233600482018190529151600093600160a060020a031691633af32abf916024808301926020929190829003018186803b158015610c7c57600080fd5b505afa158015610c90573d6000803e3d6000fd5b505050506040513d6020811015610ca657600080fd5b5051610cea576040805160e560020a62461bcd02815260206004820152601a6024820152600080516020612054833981519152604482015290519081900360640190fd5b83610cf481610ddc565b610d325760405160e560020a62461bcd0281526004018080602001828103825260238152602001806120116023913960400191505060405180910390fd5b60008581526099602052604081206009810154879290610d529088611e2a565b6009830154909150610d6a908263ffffffff611d6616565b6009909201919091559350600081815260996020908152604091829020600481015460028201546003830154600990930154855187815294850192909252838501526060830191909152608082015290516000805160206120348339815191529181900360a00190a150505092915050565b60009081526099602052604090206001015460ff1690565b60009081526099602052604090206002015490565b6033546040805160e060020a633af32abf028152336004820181905291519192600160a060020a031691633af32abf91602480820192602092909190829003018186803b158015610e5957600080fd5b505afa158015610e6d573d6000803e3d6000fd5b505050506040513d6020811015610e8357600080fd5b5051610ec7576040805160e560020a62461bcd02815260206004820152601a6024820152600080516020612054833981519152604482015290519081900360640190fd5b82610ed181610ddc565b610f0f5760405160e560020a62461bcd0281526004018080602001828103825260238152602001806120116023913960400191505060405180910390fd5b60008481526099602052604090206009810154610f32908563ffffffff611dc616565b60099091015550505050565b603354600160a060020a031681565b60009081526099602052604090206009015490565b6000610f6c611fb9565b506000838152609960209081526040808320600160a060020a038616845260060182529182902082518084019093528054835260010154908201819052610fb69085908590611cfa565b610fc4576000915050610fc8565b5190505b92915050565b6066546040805160e060020a63d994d6d50281523360048201529051600160a060020a039092169163d994d6d591602480820192602092909190829003018186803b15801561101c57600080fd5b505afa158015611030573d6000803e3d6000fd5b505050506040513d602081101561104657600080fd5b50516040805180820190915260168152605160020a753737ba2fb0baba3437b934bd32b22fb1b430b733b2b9026020820152906111045760405160e560020a62461bcd0281526004018080602001828103825283818151815260200191508051906020019080838360005b838110156110c95781810151838201526020016110b1565b50505050905090810190601f1680156110f65780820380516001836020036101000a031916815260200191505b509250505060405180910390fd5b5060009182526099602052604090912060050155565b6000908152609960205260409020600201541590565b6033546040805160e060020a633af32abf028152336004820181905291519192600160a060020a031691633af32abf91602480820192602092909190829003018186803b15801561118057600080fd5b505afa158015611194573d6000803e3d6000fd5b505050506040513d60208110156111aa57600080fd5b50516111ee576040805160e560020a62461bcd02815260206004820152601a6024820152600080516020612054833981519152604482015290519081900360640190fd5b60008581526099602052604090206004810154611211908663ffffffff611dc616565b6004820155600281015461122b908563ffffffff611dc616565b6002820155600381015461080a908463ffffffff611dc616565b6033546040805160e060020a633af32abf028152336004820181905291519192600160a060020a031691633af32abf91602480820192602092909190829003018186803b15801561129557600080fd5b505afa1580156112a9573d6000803e3d6000fd5b505050506040513d60208110156112bf57600080fd5b5051611303576040805160e560020a62461bcd02815260206004820152601a6024820152600080516020612054833981519152604482015290519081900360640190fd5b6000848152609960209081526040808320600160a060020a038716845260060190915290208281556001015461133a858583611cfa565b611342575060005b8215158161141257801561140d576000868152609960205260409020600881015460079091015414156113925760008681526099602052604090206007018054600101906113909082611fd3565b505b60008681526099602052604090206008810180546001810190915560079091018054879190839081106113c157fe5b60009182526020808320919091018054600160a060020a031916600160a060020a039485161790558982526099815260408083206008810154948b168452600601909152902060010155505b610a3e565b80610a3e576000868152609960205260408120600881015460079091018054919291600019840190811061144257fe5b60009182526020808320909101548a8352609990915260409091206007018054600160a060020a0390921692508291600019870190811061147f57fe5b600091825260208083209091018054600160a060020a03948516600160a060020a03199091161790558a8252609981526040808320600881018054600019019055948416835260069094018082528483206001908101899055938b1683529052918220015550505050505050565b60009081526099602052604090206005015490565b6066546040805160e060020a63d994d6d50281523360048201529051600160a060020a039092169163d994d6d591602480820192602092909190829003018186803b15801561155057600080fd5b505afa158015611564573d6000803e3d6000fd5b505050506040513d602081101561157a57600080fd5b50516040805180820190915260168152605160020a753737ba2fb0baba3437b934bd32b22fb1b430b733b2b9026020820152906115fb5760405160e560020a62461bcd0281526020600482018181528351602484015283519092839260449091019190850190808383600083156110c95781810151838201526020016110b1565b5060668054600160a060020a031916600160a060020a0392909216919091179055565b600054610100900460ff16806116375750611637611e40565b80611645575060005460ff16155b6116835760405160e560020a62461bcd02815260040180806020018281038252602e815260200180612074602e913960400191505060405180910390fd5b600054610100900460ff161580156116ae576000805460ff1961ff0019909116610100171660011790555b60668054600160a060020a031916600160a060020a03841617905580156116db576000805461ff00191690555b5050565b6033546040805160e060020a633af32abf028152336004820181905291519192600160a060020a031691633af32abf91602480820192602092909190829003018186803b15801561172f57600080fd5b505afa158015611743573d6000803e3d6000fd5b505050506040513d602081101561175957600080fd5b505161179d576040805160e560020a62461bcd02815260206004820152601a6024820152600080516020612054833981519152604482015290519081900360640190fd5b60006117a98686610f62565b90506117c08686610a2c848863ffffffff611d6616565b610a3e86846000876106f5565b6033546040805160e060020a633af32abf028152336004820181905291519192600160a060020a031691633af32abf91602480820192602092909190829003018186803b15801561181d57600080fd5b505afa158015611831573d6000803e3d6000fd5b505050506040513d602081101561184757600080fd5b505161188b576040805160e560020a62461bcd02815260206004820152601a6024820152600080516020612054833981519152604482015290519081900360640190fd5b600083815260996020526040902060048101546002909101546109469185918591906119a1565b60009081526099602052604090206004015490565b6033546040805160e060020a633af32abf028152336004820181905291519192600160a060020a031691633af32abf91602480820192602092909190829003018186803b15801561191757600080fd5b505afa15801561192b573d6000803e3d6000fd5b505050506040513d602081101561194157600080fd5b5051611985576040805160e560020a62461bcd02815260206004820152601a6024820152600080516020612054833981519152604482015290519081900360640190fd5b5060009081526099602052604081206003810182905560080155565b6033546040805160e060020a633af32abf028152336004820181905291519192600160a060020a031691633af32abf91602480820192602092909190829003018186803b1580156119f157600080fd5b505afa158015611a05573d6000803e3d6000fd5b505050506040513d6020811015611a1b57600080fd5b5051611a5f576040805160e560020a62461bcd02815260206004820152601a6024820152600080516020612054833981519152604482015290519081900360640190fd5b60008581526099602052604080822086835291206004820154879287929091611a8e908863ffffffff611d6616565b600480840191909155810154611aaa908863ffffffff611dc616565b60048201556002820154611ac4908763ffffffff611d6616565b600280840191909155810154611ae0908763ffffffff611dc616565b6002820155604080518a8152602081018a90528082018990526060810188905290517fea7cfe272ee6b3a54eddcacb03d0be4c4c27eb5bdc2ad7b31e5b16525cca8c089181900360800190a15050600081815260996020908152604091829020600481015460028201546003830154600990930154855187815294850192909252838501526060830191909152608082015290516000805160206120348339815191529181900360a00190a150600081815260996020908152604091829020600481015460028201546003830154600990930154855187815294850192909252838501526060830191909152608082015290516000805160206120348339815191529181900360a00190a1505050505050565b60f460020a6104330281565b600054610100900460ff1680611c185750611c18611e40565b80611c26575060005460ff16155b611c645760405160e560020a62461bcd02815260040180806020018281038252602e815260200180612074602e913960400191505060405180910390fd5b600054610100900460ff16158015611c8f576000805460ff1961ff0019909116610100171660011790555b611c9885611e47565b611ca184611f07565b611cb560f460020a61043302846001611f29565b611cc960f160020a612c1902836000611f29565b8015611cdb576000805461ff00191690555b5050505050565b6000908152609960205260409020600a015460ff1690565b60008115801590611d135750611d0f84610c0b565b8211155b8015611d5e575060008481526099602052604090206007018054600160a060020a03851691906000198501908110611d4757fe5b600091825260209091200154600160a060020a0316145b949350505050565b600082821115611dc0576040805160e560020a62461bcd02815260206004820152601e60248201527f536166654d6174683a207375627472616374696f6e206f766572666c6f770000604482015290519081900360640190fd5b50900390565b600082820183811015611e23576040805160e560020a62461bcd02815260206004820152601b60248201527f536166654d6174683a206164646974696f6e206f766572666c6f770000000000604482015290519081900360640190fd5b9392505050565b6000818310611e395781611e23565b5090919050565b303b155b90565b600054610100900460ff1680611e605750611e60611e40565b80611e6e575060005460ff16155b611eac5760405160e560020a62461bcd02815260040180806020018281038252602e815260200180612074602e913960400191505060405180910390fd5b600054610100900460ff16158015611ed7576000805460ff1961ff0019909116610100171660011790555b60338054600160a060020a031916600160a060020a03841617905580156116db576000805461ff00191690555050565b60668054600160a060020a031916600160a060020a0392909216919091179055565b600083815260996020908152604080832086815560028101849055600381018490556004810193909355600583018590556001808401805486151560ff1991821617909155600a909401805490941617909255815185815290810184905281517fd68dd25f5910add5d1ac21f2d9364b840a57ed92adaed86134a3df1a25bb40f9929181900390910190a1505050565b604051806040016040528060008152602001600081525090565b81548183558181111561094657600083815260209020610946918101908301611e4491905b8082111561200c5760008155600101611ff8565b509056fe4275636b65742073686f756c64206265206120626173652074797065206275636b65743aac8ec843e268ee8b78c133afb59913cc832aec30cf40983eb62d1d88115f7541646472657373206973206e6f742077686974656c6973746564000000000000436f6e747261637420696e7374616e63652068617320616c7265616479206265656e20696e697469616c697a6564a165627a7a72305820ac8e7ef0edf1e5436d862f9ed45e0198b87dfb4ed83decf9de5577f0cae25ae70029",
  "source": "pragma solidity 0.5.8;\n\nimport \"openzeppelin-solidity/contracts/math/SafeMath.sol\";\nimport \"./base/MoCBase.sol\";\nimport \"./MoCBucketContainer.sol\";\n\ncontract MoCBProxManager is MoCBucketContainer {\n  using SafeMath for uint256;\n  uint256 constant MIN_ALLOWED_BALANCE = 0;\n  function initialize(\n    address connectorAddress,\n    address _governor,\n    uint256 _c0Cobj,\n    uint256 _x2Cobj\n  ) public initializer {\n    initializeBase(connectorAddress);\n    initializeValues(_governor);\n    createBucket(BUCKET_C0, _c0Cobj, true);\n    createBucket(BUCKET_X2, _x2Cobj, false);\n  }\n\n  /**\n    @dev returns user balance\n    @param bucket BProx corresponding bucket to get balance from\n    @param userAddress user address to get balance from\n    @return total balance for the userAddress\n  */\n  function bproxBalanceOf(bytes32 bucket, address userAddress) public view returns(uint256) {\n    BProxBalance memory userBalance = mocBuckets[bucket].bproxBalances[userAddress];\n    if (!hasValidBalance(bucket, userAddress, userBalance.index)) return 0;\n    return userBalance.value;\n  }\n\n  /**\n    @dev verifies that this user has assigned balance for the given bucket\n    @param bucket corresponding Leveraged bucket to get balance from\n    @param userAddress user address to verify balance for\n    @param index index, starting from 1, where the address of the user is being kept\n    @return true if the user has assigned balance\n  */\n  function hasValidBalance(bytes32 bucket, address userAddress, uint index) public view returns(bool) {\n    return (index != 0) &&\n      (index <= getActiveAddressesCount(bucket)) &&\n      (mocBuckets[bucket].activeBalances[index - 1] == userAddress);\n  }\n\n  /**\n    @dev  Assigns the amount of BProx\n    @param bucket bucket from which the BProx will be removed\n    @param account user address to redeem for\n    @param bproxAmount bprox amount to redeem [using mocPresicion]\n    @param totalCost btc value of bproxAmount [using reservePrecision]\n  */\n  function assignBProx(bytes32 bucket, address payable account, uint256 bproxAmount, uint256 totalCost)\n  public onlyWhitelisted(msg.sender) {\n    uint256 currentBalance = bproxBalanceOf(bucket, account);\n\n    setBProxBalanceOf(bucket, account, currentBalance.add(bproxAmount));\n    addValuesToBucket(bucket, totalCost, 0, bproxAmount);\n  }\n\n  /**\n    @dev  Removes the amount of BProx and substract BTC cost from bucket\n    @param bucket bucket from which the BProx will be removed\n    @param userAddress user address to redeem for\n    @param bproxAmount bprox amount to redeem [using mocPresicion]\n    @param totalCost btc value of bproxAmount [using reservePrecision]\n  */\n  function removeBProx(bytes32 bucket, address payable userAddress, uint256 bproxAmount, uint256 totalCost)\n  public onlyWhitelisted(msg.sender) {\n    uint256 currentBalance = bproxBalanceOf(bucket, userAddress);\n\n    setBProxBalanceOf(bucket, userAddress, currentBalance.sub(bproxAmount));\n    substractValuesFromBucket(bucket, totalCost, 0, bproxAmount);\n  }\n\n  /**\n    @dev Sets the amount of BProx\n    @param bucket bucket from which the BProx will be setted\n    @param userAddress user address to redeem for\n    @param value bprox amount to redeem [using mocPresicion]\n  */\n  function setBProxBalanceOf(bytes32 bucket, address payable userAddress, uint256 value) public onlyWhitelisted(msg.sender) {\n    mocBuckets[bucket].bproxBalances[userAddress].value = value;\n    uint256 index = mocBuckets[bucket].bproxBalances[userAddress].index;\n    if (!hasValidBalance(bucket, userAddress, index))\n      index = 0;\n\n    bool hasBalance = value > MIN_ALLOWED_BALANCE;\n    // The address is not in the array\n    if (index == 0) {\n      if (hasBalance) {\n        if (mocBuckets[bucket].activeBalances.length == mocBuckets[bucket].activeBalancesLength) {\n          mocBuckets[bucket].activeBalances.length += 1;\n        }\n        uint256 currentIndex = mocBuckets[bucket].activeBalancesLength++;\n        mocBuckets[bucket].activeBalances[currentIndex] = userAddress;\n        mocBuckets[bucket].bproxBalances[userAddress].index = mocBuckets[bucket].activeBalancesLength;\n      }\n    } else {\n      if (!hasBalance) {\n        // We need to delete this address from the tracker\n        uint256 lastActiveIndex = mocBuckets[bucket].activeBalancesLength;\n        address payable keyToMove = mocBuckets[bucket].activeBalances[lastActiveIndex - 1];\n        mocBuckets[bucket].activeBalances[index - 1] = keyToMove;\n        // Alternative index and array decreases lenght to prevent gas limit\n        mocBuckets[bucket].activeBalancesLength--;\n        // Update moved key index\n        mocBuckets[bucket].bproxBalances[keyToMove].index = index;\n        // Disable empty account index (0 == NULL)\n        mocBuckets[bucket].bproxBalances[userAddress].index = 0;\n      }\n    }\n  }\n\n  /**\n   * @dev intializes values of the contract\n   */\n  function initializeValues(address _governor) internal {\n    governor = IGovernor(_governor);\n  }\n\n  // Leave a gap betweeen inherited contracts variables in order to be\n  // able to add more variables in them later\n  uint256[50] private upgradeGap;\n}\n",
  "sourcePath": "/home/bruno/Proyectos/Cripto/MoC/main-RBTC-contract/contracts/MoCBProxManager.sol",
  "compiler": {
    "name": "solc",
    "version": "0.5.8+commit.23d335f2.Emscripten.clang"
  },
  "schemaVersion": "3.0.11",
  "updatedAt": "2020-05-02T13:11:46.490Z",
  "devdoc": {
    "methods": {
      "addValuesToBucket(bytes32,uint256,uint256,uint256)": {
        "details": "Add values to all variables of the bucket",
        "params": {
          "bprox": "BPro amount [using mocPrecision]*",
          "btc": "BTC amount [using reservePrecision]",
          "bucketName": "Name of the bucket",
          "doc": "Doc amount [using mocPrecision]"
        }
      },
      "assignBProx(bytes32,address,uint256,uint256)": {
        "details": "Assigns the amount of BProx",
        "params": {
          "account": "user address to redeem for",
          "bproxAmount": "bprox amount to redeem [using mocPresicion]",
          "bucket": "bucket from which the BProx will be removed",
          "totalCost": "btc value of bproxAmount [using reservePrecision]"
        }
      },
      "bproxBalanceOf(bytes32,address)": {
        "details": "returns user balance",
        "params": {
          "bucket": "BProx corresponding bucket to get balance from",
          "userAddress": "user address to get balance from"
        },
        "return": "total balance for the userAddress"
      },
      "changeIGovernor(address)": {
        "params": {
          "newIGovernor": "New governor address"
        }
      },
      "clearBucketBalances(bytes32)": {
        "details": "Put all bucket BProx balances in zero",
        "params": {
          "bucketName": "Bucket to clear out"
        }
      },
      "deliverInrate(bytes32,uint256)": {
        "details": "Moves BTC from inrateBag to main BTC bucket bag",
        "params": {
          "amount": "value to move from inrateBag to main bag [using reservePrecision]",
          "bucketName": "Name of the bucket to operate"
        }
      },
      "emptyBucket(bytes32,bytes32)": {
        "details": "Clears Docs and BTC from bucket origin and sends them to destination bucket",
        "params": {
          "destination": "Destination bucket*",
          "origin": "Bucket to clear out"
        }
      },
      "getActiveAddresses(bytes32)": {
        "details": "Returns all the address that currently have bprox position for this bucket",
        "params": {
          "bucket": "bucket of the active address"
        }
      },
      "getActiveAddressesCount(bytes32)": {
        "details": "Returns all the address that currently have bprox position for this bucket",
        "params": {
          "bucket": "bucket of the active address"
        }
      },
      "hasValidBalance(bytes32,address,uint256)": {
        "details": "verifies that this user has assigned balance for the given bucket",
        "params": {
          "bucket": "corresponding Leveraged bucket to get balance from",
          "index": "index, starting from 1, where the address of the user is being kept",
          "userAddress": "user address to verify balance for"
        },
        "return": "true if the user has assigned balance"
      },
      "initialize(address)": {
        "details": "This initialize replaces the constructor but it is not called automatically. It is necessary because of the upgradeability of the contracts",
        "params": {
          "_governor": "Governor address"
        }
      },
      "isAvailableBucket(bytes32)": {
        "details": "checks if a bucket exists",
        "params": {
          "bucket": "name of the bucket"
        }
      },
      "isBucketBase(bytes32)": {
        "details": "returns true if the bucket is a base bucket",
        "params": {
          "bucket": "Name of the bucket*"
        }
      },
      "isBucketEmpty(bytes32)": {
        "details": "returns true if the bucket have docs in it",
        "params": {
          "bucket": "Name of the bucket*"
        }
      },
      "liquidateBucket(bytes32,bytes32)": {
        "details": "Clears completely the origin bucket, removing all Docs, RBTCs and bproxs",
        "params": {
          "destination": "Bucket that will receive the Docs and RBTCs",
          "toLiquidate": "Bucket to be cleared out"
        }
      },
      "moveBtcAndDocs(bytes32,bytes32,uint256,uint256)": {
        "details": "Move Btcs and Docs from one bucket to another",
        "params": {
          "btc": "BTCs amount [using reservePrecision]",
          "docs": "Docs amount [using mocPrecision]*",
          "from": "Name of bucket from where the BTCs will be removed",
          "to": "Name of bucket from where the BTCs will be added"
        }
      },
      "payInrate(bytes32,uint256)": {
        "details": "Moves BTC from origin bucket to destination bucket inrateBag",
        "params": {
          "btcAmount": "value to add to main bag [using reservePrecision]",
          "bucketName": "name of the bucket to from which takes"
        }
      },
      "recoverInrate(bytes32,uint256)": {
        "details": "Removes Interests rate from Inrate bag",
        "params": {
          "amount": "value to move from inrateBag to main bag [using reservePrecision]",
          "bucketName": "Name of the bucket to operate"
        },
        "return": "Retrieved value"
      },
      "removeBProx(bytes32,address,uint256,uint256)": {
        "details": "Removes the amount of BProx and substract BTC cost from bucket",
        "params": {
          "bproxAmount": "bprox amount to redeem [using mocPresicion]",
          "bucket": "bucket from which the BProx will be removed",
          "totalCost": "btc value of bproxAmount [using reservePrecision]",
          "userAddress": "user address to redeem for"
        }
      },
      "setBProxBalanceOf(bytes32,address,uint256)": {
        "details": "Sets the amount of BProx",
        "params": {
          "bucket": "bucket from which the BProx will be setted",
          "userAddress": "user address to redeem for",
          "value": "bprox amount to redeem [using mocPresicion]"
        }
      },
      "setBucketCobj(bytes32,uint256)": {
        "details": "Sets the objective coverage (cobj) on an specficied bucket.",
        "params": {
          "_bucket": "- name of the bucket",
          "_cobj": "- new value of cobj"
        }
      },
      "substractValuesFromBucket(bytes32,uint256,uint256,uint256)": {
        "details": "Substract values to all variables of the bucket",
        "params": {
          "bprox": "BPro amount [using mocPrecision]*",
          "btc": "BTC amount [using reservePrecision]",
          "bucketName": "Name of the bucket",
          "doc": "Doc amount [using mocPrecision]"
        }
      }
    }
  },
  "userdoc": {
    "methods": {
      "changeIGovernor(address)": {
        "notice": "Change the contract's governor. Should be called through the old governance system"
      },
      "getBucketNBTC(bytes32)": {
        "notice": "GETTERS"
      },
      "initialize(address)": {
        "notice": "Initialize the contract with the basic settings"
      }
    }
  }
}