{
  "contractName": "MoCState",
  "abi": [
    {
      "constant": true,
      "inputs": [],
      "name": "getReservePrecision",
      "outputs": [
        {
          "name": "",
          "type": "uint256"
        }
      ],
      "payable": false,
      "stateMutability": "view",
      "type": "function"
    },
    {
      "constant": true,
      "inputs": [],
      "name": "governor",
      "outputs": [
        {
          "name": "",
          "type": "address"
        }
      ],
      "payable": false,
      "stateMutability": "view",
      "type": "function"
    },
    {
      "constant": true,
      "inputs": [],
      "name": "smoothingFactor",
      "outputs": [
        {
          "name": "",
          "type": "uint256"
        }
      ],
      "payable": false,
      "stateMutability": "view",
      "type": "function"
    },
    {
      "constant": true,
      "inputs": [],
      "name": "getGovernorAddress",
      "outputs": [
        {
          "name": "",
          "type": "address"
        }
      ],
      "payable": false,
      "stateMutability": "view",
      "type": "function"
    },
    {
      "constant": true,
      "inputs": [],
      "name": "peg",
      "outputs": [
        {
          "name": "",
          "type": "uint256"
        }
      ],
      "payable": false,
      "stateMutability": "view",
      "type": "function"
    },
    {
      "constant": false,
      "inputs": [
        {
          "name": "blockSpan",
          "type": "uint256"
        }
      ],
      "name": "setEmaCalculationBlockSpan",
      "outputs": [],
      "payable": false,
      "stateMutability": "nonpayable",
      "type": "function"
    },
    {
      "constant": true,
      "inputs": [],
      "name": "BUCKET_X2",
      "outputs": [
        {
          "name": "",
          "type": "bytes32"
        }
      ],
      "payable": false,
      "stateMutability": "view",
      "type": "function"
    },
    {
      "constant": true,
      "inputs": [],
      "name": "getEmaCalculationBlockSpan",
      "outputs": [
        {
          "name": "",
          "type": "uint256"
        }
      ],
      "payable": false,
      "stateMutability": "view",
      "type": "function"
    },
    {
      "constant": true,
      "inputs": [],
      "name": "bproMaxDiscountRate",
      "outputs": [
        {
          "name": "",
          "type": "uint256"
        }
      ],
      "payable": false,
      "stateMutability": "view",
      "type": "function"
    },
    {
      "constant": true,
      "inputs": [],
      "name": "dayBlockSpan",
      "outputs": [
        {
          "name": "",
          "type": "uint256"
        }
      ],
      "payable": false,
      "stateMutability": "view",
      "type": "function"
    },
    {
      "constant": true,
      "inputs": [],
      "name": "emaCalculationBlockSpan",
      "outputs": [
        {
          "name": "",
          "type": "uint256"
        }
      ],
      "payable": false,
      "stateMutability": "view",
      "type": "function"
    },
    {
      "constant": true,
      "inputs": [],
      "name": "connector",
      "outputs": [
        {
          "name": "",
          "type": "address"
        }
      ],
      "payable": false,
      "stateMutability": "view",
      "type": "function"
    },
    {
      "constant": true,
      "inputs": [],
      "name": "rbtcInSystem",
      "outputs": [
        {
          "name": "",
          "type": "uint256"
        }
      ],
      "payable": false,
      "stateMutability": "view",
      "type": "function"
    },
    {
      "constant": true,
      "inputs": [],
      "name": "maxMintBPro",
      "outputs": [
        {
          "name": "",
          "type": "uint256"
        }
      ],
      "payable": false,
      "stateMutability": "view",
      "type": "function"
    },
    {
      "constant": true,
      "inputs": [],
      "name": "PRICE_PRECISION",
      "outputs": [
        {
          "name": "",
          "type": "uint256"
        }
      ],
      "payable": false,
      "stateMutability": "view",
      "type": "function"
    },
    {
      "constant": true,
      "inputs": [],
      "name": "getLastEmaCalculation",
      "outputs": [
        {
          "name": "",
          "type": "uint256"
        }
      ],
      "payable": false,
      "stateMutability": "view",
      "type": "function"
    },
    {
      "constant": true,
      "inputs": [],
      "name": "lastEmaCalculation",
      "outputs": [
        {
          "name": "",
          "type": "uint256"
        }
      ],
      "payable": false,
      "stateMutability": "view",
      "type": "function"
    },
    {
      "constant": true,
      "inputs": [],
      "name": "FACTOR_PRECISION",
      "outputs": [
        {
          "name": "",
          "type": "uint256"
        }
      ],
      "payable": false,
      "stateMutability": "view",
      "type": "function"
    },
    {
      "constant": true,
      "inputs": [],
      "name": "shouldCalculateEma",
      "outputs": [
        {
          "name": "",
          "type": "bool"
        }
      ],
      "payable": false,
      "stateMutability": "view",
      "type": "function"
    },
    {
      "constant": false,
      "inputs": [
        {
          "name": "factor",
          "type": "uint256"
        }
      ],
      "name": "setSmoothingFactor",
      "outputs": [],
      "payable": false,
      "stateMutability": "nonpayable",
      "type": "function"
    },
    {
      "constant": false,
      "inputs": [
        {
          "name": "newIGovernor",
          "type": "address"
        }
      ],
      "name": "changeIGovernor",
      "outputs": [],
      "payable": false,
      "stateMutability": "nonpayable",
      "type": "function"
    },
    {
      "constant": true,
      "inputs": [],
      "name": "liquidationPrice",
      "outputs": [
        {
          "name": "",
          "type": "uint256"
        }
      ],
      "payable": false,
      "stateMutability": "view",
      "type": "function"
    },
    {
      "constant": true,
      "inputs": [],
      "name": "state",
      "outputs": [
        {
          "name": "",
          "type": "uint8"
        }
      ],
      "payable": false,
      "stateMutability": "view",
      "type": "function"
    },
    {
      "constant": true,
      "inputs": [],
      "name": "getSmoothingFactor",
      "outputs": [
        {
          "name": "",
          "type": "uint256"
        }
      ],
      "payable": false,
      "stateMutability": "view",
      "type": "function"
    },
    {
      "constant": true,
      "inputs": [],
      "name": "BUCKET_C0",
      "outputs": [
        {
          "name": "",
          "type": "bytes32"
        }
      ],
      "payable": false,
      "stateMutability": "view",
      "type": "function"
    },
    {
      "constant": true,
      "inputs": [],
      "name": "getDayPrecision",
      "outputs": [
        {
          "name": "",
          "type": "uint256"
        }
      ],
      "payable": false,
      "stateMutability": "view",
      "type": "function"
    },
    {
      "constant": true,
      "inputs": [],
      "name": "utpdu",
      "outputs": [
        {
          "name": "",
          "type": "uint256"
        }
      ],
      "payable": false,
      "stateMutability": "view",
      "type": "function"
    },
    {
      "constant": true,
      "inputs": [],
      "name": "getMocPrecision",
      "outputs": [
        {
          "name": "",
          "type": "uint256"
        }
      ],
      "payable": false,
      "stateMutability": "view",
      "type": "function"
    },
    {
      "constant": true,
      "inputs": [],
      "name": "liq",
      "outputs": [
        {
          "name": "",
          "type": "uint256"
        }
      ],
      "payable": false,
      "stateMutability": "view",
      "type": "function"
    },
    {
      "constant": true,
      "inputs": [],
      "name": "getBitcoinMovingAverage",
      "outputs": [
        {
          "name": "",
          "type": "uint256"
        }
      ],
      "payable": false,
      "stateMutability": "view",
      "type": "function"
    },
    {
      "anonymous": false,
      "inputs": [
        {
          "indexed": false,
          "name": "newState",
          "type": "uint8"
        }
      ],
      "name": "StateTransition",
      "type": "event"
    },
    {
      "anonymous": false,
      "inputs": [
        {
          "indexed": false,
          "name": "oldAddress",
          "type": "address"
        },
        {
          "indexed": false,
          "name": "newAddress",
          "type": "address"
        }
      ],
      "name": "PriceProviderUpdated",
      "type": "event"
    },
    {
      "anonymous": false,
      "inputs": [
        {
          "indexed": false,
          "name": "price",
          "type": "uint256"
        },
        {
          "indexed": false,
          "name": "movingAverage",
          "type": "uint256"
        }
      ],
      "name": "MovingAverageCalculation",
      "type": "event"
    },
    {
      "constant": false,
      "inputs": [
        {
          "name": "_governor",
          "type": "address"
        }
      ],
      "name": "initialize",
      "outputs": [],
      "payable": false,
      "stateMutability": "nonpayable",
      "type": "function"
    },
    {
      "constant": false,
      "inputs": [
        {
          "name": "connectorAddress",
          "type": "address"
        },
        {
          "name": "_governor",
          "type": "address"
        },
        {
          "name": "_btcPriceProvider",
          "type": "address"
        },
        {
          "name": "_liq",
          "type": "uint256"
        },
        {
          "name": "_utpdu",
          "type": "uint256"
        },
        {
          "name": "_maxDiscRate",
          "type": "uint256"
        },
        {
          "name": "_dayBlockSpan",
          "type": "uint256"
        },
        {
          "name": "_ema",
          "type": "uint256"
        },
        {
          "name": "_smoothFactor",
          "type": "uint256"
        },
        {
          "name": "_emaBlockSpan",
          "type": "uint256"
        },
        {
          "name": "_maxMintBPro",
          "type": "uint256"
        }
      ],
      "name": "initialize",
      "outputs": [],
      "payable": false,
      "stateMutability": "nonpayable",
      "type": "function"
    },
    {
      "constant": false,
      "inputs": [
        {
          "name": "rate",
          "type": "uint256"
        }
      ],
      "name": "setMaxDiscountRate",
      "outputs": [],
      "payable": false,
      "stateMutability": "nonpayable",
      "type": "function"
    },
    {
      "constant": true,
      "inputs": [],
      "name": "getMaxDiscountRate",
      "outputs": [
        {
          "name": "",
          "type": "uint256"
        }
      ],
      "payable": false,
      "stateMutability": "view",
      "type": "function"
    },
    {
      "constant": false,
      "inputs": [
        {
          "name": "blockSpan",
          "type": "uint256"
        }
      ],
      "name": "setDayBlockSpan",
      "outputs": [],
      "payable": false,
      "stateMutability": "nonpayable",
      "type": "function"
    },
    {
      "constant": false,
      "inputs": [
        {
          "name": "btcProviderAddress",
          "type": "address"
        }
      ],
      "name": "setBtcPriceProvider",
      "outputs": [],
      "payable": false,
      "stateMutability": "nonpayable",
      "type": "function"
    },
    {
      "constant": true,
      "inputs": [],
      "name": "getBtcPriceProvider",
      "outputs": [
        {
          "name": "",
          "type": "address"
        }
      ],
      "payable": false,
      "stateMutability": "view",
      "type": "function"
    },
    {
      "constant": true,
      "inputs": [],
      "name": "getDayBlockSpan",
      "outputs": [
        {
          "name": "",
          "type": "uint256"
        }
      ],
      "payable": false,
      "stateMutability": "view",
      "type": "function"
    },
    {
      "constant": false,
      "inputs": [
        {
          "name": "btcAmount",
          "type": "uint256"
        }
      ],
      "name": "subtractRbtcFromSystem",
      "outputs": [],
      "payable": false,
      "stateMutability": "nonpayable",
      "type": "function"
    },
    {
      "constant": false,
      "inputs": [
        {
          "name": "btcAmount",
          "type": "uint256"
        }
      ],
      "name": "addToRbtcInSystem",
      "outputs": [],
      "payable": false,
      "stateMutability": "nonpayable",
      "type": "function"
    },
    {
      "constant": true,
      "inputs": [],
      "name": "bproTotalSupply",
      "outputs": [
        {
          "name": "",
          "type": "uint256"
        }
      ],
      "payable": false,
      "stateMutability": "view",
      "type": "function"
    },
    {
      "constant": true,
      "inputs": [],
      "name": "docTotalSupply",
      "outputs": [
        {
          "name": "",
          "type": "uint256"
        }
      ],
      "payable": false,
      "stateMutability": "view",
      "type": "function"
    },
    {
      "constant": true,
      "inputs": [],
      "name": "cobj",
      "outputs": [
        {
          "name": "",
          "type": "uint256"
        }
      ],
      "payable": false,
      "stateMutability": "view",
      "type": "function"
    },
    {
      "constant": true,
      "inputs": [],
      "name": "collateralRbtcInSystem",
      "outputs": [
        {
          "name": "",
          "type": "uint256"
        }
      ],
      "payable": false,
      "stateMutability": "view",
      "type": "function"
    },
    {
      "constant": true,
      "inputs": [],
      "name": "globalCoverage",
      "outputs": [
        {
          "name": "",
          "type": "uint256"
        }
      ],
      "payable": false,
      "stateMutability": "view",
      "type": "function"
    },
    {
      "constant": true,
      "inputs": [
        {
          "name": "bucket",
          "type": "bytes32"
        }
      ],
      "name": "lockedBitcoin",
      "outputs": [
        {
          "name": "",
          "type": "uint256"
        }
      ],
      "payable": false,
      "stateMutability": "view",
      "type": "function"
    },
    {
      "constant": true,
      "inputs": [
        {
          "name": "bucket",
          "type": "bytes32"
        }
      ],
      "name": "getRbtcInBitPro",
      "outputs": [
        {
          "name": "",
          "type": "uint256"
        }
      ],
      "payable": false,
      "stateMutability": "view",
      "type": "function"
    },
    {
      "constant": true,
      "inputs": [],
      "name": "getRbtcRemainder",
      "outputs": [
        {
          "name": "",
          "type": "uint256"
        }
      ],
      "payable": false,
      "stateMutability": "view",
      "type": "function"
    },
    {
      "constant": true,
      "inputs": [
        {
          "name": "bucket",
          "type": "bytes32"
        }
      ],
      "name": "coverage",
      "outputs": [
        {
          "name": "",
          "type": "uint256"
        }
      ],
      "payable": false,
      "stateMutability": "view",
      "type": "function"
    },
    {
      "constant": true,
      "inputs": [
        {
          "name": "doc0",
          "type": "uint256"
        }
      ],
      "name": "abundanceRatio",
      "outputs": [
        {
          "name": "",
          "type": "uint256"
        }
      ],
      "payable": false,
      "stateMutability": "view",
      "type": "function"
    },
    {
      "constant": true,
      "inputs": [],
      "name": "currentAbundanceRatio",
      "outputs": [
        {
          "name": "",
          "type": "uint256"
        }
      ],
      "payable": false,
      "stateMutability": "view",
      "type": "function"
    },
    {
      "constant": true,
      "inputs": [
        {
          "name": "bucket",
          "type": "bytes32"
        }
      ],
      "name": "leverage",
      "outputs": [
        {
          "name": "",
          "type": "uint256"
        }
      ],
      "payable": false,
      "stateMutability": "view",
      "type": "function"
    },
    {
      "constant": true,
      "inputs": [],
      "name": "globalMaxDoc",
      "outputs": [
        {
          "name": "",
          "type": "uint256"
        }
      ],
      "payable": false,
      "stateMutability": "view",
      "type": "function"
    },
    {
      "constant": true,
      "inputs": [],
      "name": "freeDoc",
      "outputs": [
        {
          "name": "",
          "type": "uint256"
        }
      ],
      "payable": false,
      "stateMutability": "view",
      "type": "function"
    },
    {
      "constant": true,
      "inputs": [
        {
          "name": "bucket",
          "type": "bytes32"
        }
      ],
      "name": "maxDoc",
      "outputs": [
        {
          "name": "",
          "type": "uint256"
        }
      ],
      "payable": false,
      "stateMutability": "view",
      "type": "function"
    },
    {
      "constant": true,
      "inputs": [],
      "name": "globalMaxBPro",
      "outputs": [
        {
          "name": "",
          "type": "uint256"
        }
      ],
      "payable": false,
      "stateMutability": "view",
      "type": "function"
    },
    {
      "constant": true,
      "inputs": [],
      "name": "absoluteMaxDoc",
      "outputs": [
        {
          "name": "",
          "type": "uint256"
        }
      ],
      "payable": false,
      "stateMutability": "view",
      "type": "function"
    },
    {
      "constant": true,
      "inputs": [
        {
          "name": "bucket",
          "type": "bytes32"
        }
      ],
      "name": "maxBPro",
      "outputs": [
        {
          "name": "",
          "type": "uint256"
        }
      ],
      "payable": false,
      "stateMutability": "view",
      "type": "function"
    },
    {
      "constant": true,
      "inputs": [
        {
          "name": "bucket",
          "type": "bytes32"
        }
      ],
      "name": "maxBProx",
      "outputs": [
        {
          "name": "",
          "type": "uint256"
        }
      ],
      "payable": false,
      "stateMutability": "view",
      "type": "function"
    },
    {
      "constant": true,
      "inputs": [
        {
          "name": "bucket",
          "type": "bytes32"
        }
      ],
      "name": "maxBProxBtcValue",
      "outputs": [
        {
          "name": "",
          "type": "uint256"
        }
      ],
      "payable": false,
      "stateMutability": "view",
      "type": "function"
    },
    {
      "constant": true,
      "inputs": [],
      "name": "absoluteMaxBPro",
      "outputs": [
        {
          "name": "",
          "type": "uint256"
        }
      ],
      "payable": false,
      "stateMutability": "view",
      "type": "function"
    },
    {
      "constant": true,
      "inputs": [],
      "name": "maxBProWithDiscount",
      "outputs": [
        {
          "name": "",
          "type": "uint256"
        }
      ],
      "payable": false,
      "stateMutability": "view",
      "type": "function"
    },
    {
      "constant": true,
      "inputs": [],
      "name": "globalLockedBitcoin",
      "outputs": [
        {
          "name": "",
          "type": "uint256"
        }
      ],
      "payable": false,
      "stateMutability": "view",
      "type": "function"
    },
    {
      "constant": true,
      "inputs": [],
      "name": "bproTecPrice",
      "outputs": [
        {
          "name": "",
          "type": "uint256"
        }
      ],
      "payable": false,
      "stateMutability": "view",
      "type": "function"
    },
    {
      "constant": true,
      "inputs": [
        {
          "name": "bucket",
          "type": "bytes32"
        }
      ],
      "name": "bucketBProTecPrice",
      "outputs": [
        {
          "name": "",
          "type": "uint256"
        }
      ],
      "payable": false,
      "stateMutability": "view",
      "type": "function"
    },
    {
      "constant": true,
      "inputs": [],
      "name": "bproDiscountPrice",
      "outputs": [
        {
          "name": "",
          "type": "uint256"
        }
      ],
      "payable": false,
      "stateMutability": "view",
      "type": "function"
    },
    {
      "constant": true,
      "inputs": [],
      "name": "bproUsdPrice",
      "outputs": [
        {
          "name": "",
          "type": "uint256"
        }
      ],
      "payable": false,
      "stateMutability": "view",
      "type": "function"
    },
    {
      "constant": true,
      "inputs": [
        {
          "name": "bucket",
          "type": "bytes32"
        }
      ],
      "name": "maxBProxBProValue",
      "outputs": [
        {
          "name": "",
          "type": "uint256"
        }
      ],
      "payable": false,
      "stateMutability": "view",
      "type": "function"
    },
    {
      "constant": true,
      "inputs": [
        {
          "name": "bucket",
          "type": "bytes32"
        }
      ],
      "name": "bproxBProPrice",
      "outputs": [
        {
          "name": "",
          "type": "uint256"
        }
      ],
      "payable": false,
      "stateMutability": "view",
      "type": "function"
    },
    {
      "constant": true,
      "inputs": [],
      "name": "bproSpotDiscountRate",
      "outputs": [
        {
          "name": "",
          "type": "uint256"
        }
      ],
      "payable": false,
      "stateMutability": "view",
      "type": "function"
    },
    {
      "constant": true,
      "inputs": [],
      "name": "daysToSettlement",
      "outputs": [
        {
          "name": "",
          "type": "uint256"
        }
      ],
      "payable": false,
      "stateMutability": "view",
      "type": "function"
    },
    {
      "constant": true,
      "inputs": [],
      "name": "blocksToSettlement",
      "outputs": [
        {
          "name": "",
          "type": "uint256"
        }
      ],
      "payable": false,
      "stateMutability": "view",
      "type": "function"
    },
    {
      "constant": true,
      "inputs": [],
      "name": "isLiquidationReached",
      "outputs": [
        {
          "name": "",
          "type": "bool"
        }
      ],
      "payable": false,
      "stateMutability": "view",
      "type": "function"
    },
    {
      "constant": true,
      "inputs": [],
      "name": "getLiquidationPrice",
      "outputs": [
        {
          "name": "",
          "type": "uint256"
        }
      ],
      "payable": false,
      "stateMutability": "view",
      "type": "function"
    },
    {
      "constant": true,
      "inputs": [
        {
          "name": "bucket",
          "type": "bytes32"
        }
      ],
      "name": "getBucketNBTC",
      "outputs": [
        {
          "name": "",
          "type": "uint256"
        }
      ],
      "payable": false,
      "stateMutability": "view",
      "type": "function"
    },
    {
      "constant": true,
      "inputs": [
        {
          "name": "bucket",
          "type": "bytes32"
        }
      ],
      "name": "getBucketNBPro",
      "outputs": [
        {
          "name": "",
          "type": "uint256"
        }
      ],
      "payable": false,
      "stateMutability": "view",
      "type": "function"
    },
    {
      "constant": true,
      "inputs": [
        {
          "name": "bucket",
          "type": "bytes32"
        }
      ],
      "name": "getBucketNDoc",
      "outputs": [
        {
          "name": "",
          "type": "uint256"
        }
      ],
      "payable": false,
      "stateMutability": "view",
      "type": "function"
    },
    {
      "constant": true,
      "inputs": [
        {
          "name": "bucket",
          "type": "bytes32"
        }
      ],
      "name": "getBucketCobj",
      "outputs": [
        {
          "name": "",
          "type": "uint256"
        }
      ],
      "payable": false,
      "stateMutability": "view",
      "type": "function"
    },
    {
      "constant": true,
      "inputs": [
        {
          "name": "bucket",
          "type": "bytes32"
        }
      ],
      "name": "getInrateBag",
      "outputs": [
        {
          "name": "",
          "type": "uint256"
        }
      ],
      "payable": false,
      "stateMutability": "view",
      "type": "function"
    },
    {
      "constant": true,
      "inputs": [],
      "name": "getBcons",
      "outputs": [
        {
          "name": "",
          "type": "uint256"
        }
      ],
      "payable": false,
      "stateMutability": "view",
      "type": "function"
    },
    {
      "constant": true,
      "inputs": [],
      "name": "getBitcoinPrice",
      "outputs": [
        {
          "name": "",
          "type": "uint256"
        }
      ],
      "payable": false,
      "stateMutability": "view",
      "type": "function"
    },
    {
      "constant": false,
      "inputs": [],
      "name": "calculateBitcoinMovingAverage",
      "outputs": [],
      "payable": false,
      "stateMutability": "nonpayable",
      "type": "function"
    },
    {
      "constant": true,
      "inputs": [],
      "name": "getLiq",
      "outputs": [
        {
          "name": "",
          "type": "uint256"
        }
      ],
      "payable": false,
      "stateMutability": "view",
      "type": "function"
    },
    {
      "constant": false,
      "inputs": [
        {
          "name": "_liq",
          "type": "uint256"
        }
      ],
      "name": "setLiq",
      "outputs": [],
      "payable": false,
      "stateMutability": "nonpayable",
      "type": "function"
    },
    {
      "constant": true,
      "inputs": [],
      "name": "getUtpdu",
      "outputs": [
        {
          "name": "",
          "type": "uint256"
        }
      ],
      "payable": false,
      "stateMutability": "view",
      "type": "function"
    },
    {
      "constant": false,
      "inputs": [
        {
          "name": "_utpdu",
          "type": "uint256"
        }
      ],
      "name": "setUtpdu",
      "outputs": [],
      "payable": false,
      "stateMutability": "nonpayable",
      "type": "function"
    },
    {
      "constant": true,
      "inputs": [],
      "name": "getPeg",
      "outputs": [
        {
          "name": "",
          "type": "uint256"
        }
      ],
      "payable": false,
      "stateMutability": "view",
      "type": "function"
    },
    {
      "constant": false,
      "inputs": [
        {
          "name": "_peg",
          "type": "uint256"
        }
      ],
      "name": "setPeg",
      "outputs": [],
      "payable": false,
      "stateMutability": "nonpayable",
      "type": "function"
    },
    {
      "constant": false,
      "inputs": [],
      "name": "nextState",
      "outputs": [],
      "payable": false,
      "stateMutability": "nonpayable",
      "type": "function"
    },
    {
      "constant": false,
      "inputs": [
        {
          "name": "_maxMintBPro",
          "type": "uint256"
        }
      ],
      "name": "setMaxMintBPro",
      "outputs": [],
      "payable": false,
      "stateMutability": "nonpayable",
      "type": "function"
    },
    {
      "constant": true,
      "inputs": [],
      "name": "getMaxMintBPro",
      "outputs": [
        {
          "name": "",
          "type": "uint256"
        }
      ],
      "payable": false,
      "stateMutability": "view",
      "type": "function"
    },
    {
      "constant": true,
      "inputs": [],
      "name": "maxMintBProAvalaible",
      "outputs": [
        {
          "name": "",
          "type": "uint256"
        }
      ],
      "payable": false,
      "stateMutability": "view",
      "type": "function"
    }
  ],
  "bytecode": "0x608060405234801561001057600080fd5b50613ef1806100206000396000f3fe608060405234801561001057600080fd5b50600436106104175760e060020a600035046304bda17f811461041c57806306bdce8c1461044b5780630891f6ea1461045357806308c36d9e146104705780630c340a24146104785780630d9c71aa1461049c578063118fe752146104a457806311a2e50b146104ac578063133374bd146104b457806314007c6d146104bc578063157d5cfb146104c65780631cd2b37c146104ce5780631f1cb62b146104d65780632439725a146104de57806336eef862146104fb5780633a8115a6146105185780633bc4ac0a14610520578063405dac781461053d578063445a06e41461054557806346558d1b1461054d578063484ec046146105555780634aa50e401461055d57806351ffe1931461056557806352bfb6311461056d57806357a13a16146105755780635a0763b81461057d5780635e73f4841461059a5780636325f968146105a2578063640f0fea146105aa5780636663a85e146105b257806367c8bcf9146105ba5780637119a490146105d75780637144e9a2146105fd578063717c01c014610605578063747a56631461060d5780637a727fe8146106155780637c5362161461061d5780637f19c56f1461063a57806380c14b8d146106425780638300df491461065f57806383f3084f146106675780638781f68b1461066f578063884725621461068c578063889d9b64146106945780638bd11355146106b15780638c3e0502146106b95780638ec66853146106d657806391f7e09e146106f35780639214fa4d146106fb57806395082d251461070357806396e4a0371461070b57806398b762a1146107135780639aa59d44146107305780639ad6659d14610738578063a181c39714610754578063a42c69a914610703578063a6e9b1591461075c578063a84ab5f214610779578063a8ba1d1814610796578063a8e9ac301461079e578063b398eb21146107a6578063b488ea41146107c3578063b6e08330146107e0578063b6fc2d5f14610806578063b81047731461080e578063bc2ae97214610816578063c19d93fb14610833578063c4a7c94b1461085f578063c4d66de81461087c578063c4ee19ea146108a2578063c94750a8146108aa578063c9c95036146108b2578063cb93e65d146108cf578063cdb50771146108d7578063d298d9c9146108f4578063d337b9fe146108fc578063d81bc97c14610904578063df3d90b314610921578063e22155f614610929578063e2414a7314610931578063e2ea7e7f14610939578063e6d4a0ee14610941578063e890675714610949578063eb4edb8514610951578063eb892a621461096e578063f65d47aa1461098b578063f715e293146109f5578063f74326f9146109fd578063fa8ba49014610a1a578063faba8c3b14610a22578063fb8a8b2714610a2a578063fd80476714610a32575b600080fd5b6104396004803603602081101561043257600080fd5b5035610a4f565b60408051918252519081900360200190f35b610439610ad3565b6104396004803603602081101561046957600080fd5b5035610ada565b610439610d31565b610480610d49565b60408051600160a060020a039092168252519081900360200190f35b610439610d58565b610439610d5e565b610439610e0c565b610439610e3e565b6104c4610e61565b005b610480610fae565b610439610fbd565b610439610fc4565b6104c4600480360360208110156104f457600080fd5b5035610fcb565b6104396004803603602081101561051157600080fd5b50356110fa565b6104396111a5565b6104c46004803603602081101561053657600080fd5b50356112a3565b610439611394565b61043961139b565b6104396113e0565b6104396113e7565b6104396113ee565b610439611403565b61043961140a565b6104396114fa565b6104396004803603602081101561059357600080fd5b5035611506565b6104396115db565b6104396116f7565b6104396116fd565b610439611788565b610439600480360360208110156105d057600080fd5b503561178f565b6104c4600480360360208110156105ed57600080fd5b5035600160a060020a03166117df565b61043961193b565b6104396119a6565b6104396119ad565b6104396119e5565b6104c46004803603602081101561063357600080fd5b50356119eb565b610439611add565b6104c46004803603602081101561065857600080fd5b5035611ae4565b610439611bd6565b610480611cbf565b6104396004803603602081101561068557600080fd5b5035611cce565b610439611d88565b610439600480360360208110156106aa57600080fd5b5035611e32565b610439611e82565b610439600480360360208110156106cf57600080fd5b5035611e89565b610439600480360360208110156106ec57600080fd5b5035612102565b6104396121fa565b610439612201565b610439612208565b610439612214565b6104c46004803603602081101561072957600080fd5b50356123d1565b61043961251c565b610740612522565b604080519115158252519081900360200190f35b61043961256b565b6104396004803603602081101561077257600080fd5b5035612571565b6104396004803603602081101561078f57600080fd5b5035612687565b6104396126bb565b610740612712565b610439600480360360208110156107bc57600080fd5b5035612733565b6104c4600480360360208110156107d957600080fd5b5035612783565b6104c4600480360360208110156107f657600080fd5b5035600160a060020a031661287b565b610439612989565b610439612990565b6104c46004803603602081101561082c57600080fd5b50356129ab565b61083b612a9d565b6040518082600381111561084b57fe5b60ff16815260200191505060405180910390f35b6104396004803603602081101561087557600080fd5b5035612aa7565b6104c46004803603602081101561089257600080fd5b5035600160a060020a0316612d13565b610439612dd3565b610439612e4a565b6104c4600480360360208110156108c857600080fd5b5035612e85565b610439612f5f565b610439600480360360208110156108ed57600080fd5b5035612f65565b610480612fb5565b610439612fca565b6104396004803603602081101561091a57600080fd5b5035613013565b610439613191565b6104396131da565b6104396131e6565b6104396131ec565b6104c461329d565b6104396132ad565b6104c46004803603602081101561096757600080fd5b50356132b4565b6104396004803603602081101561098457600080fd5b5035613386565b6104c460048036036101608110156109a257600080fd5b50600160a060020a03813581169160208101358216916040820135169060608101359060808101359060a08101359060c08101359060e081013590610100810135906101208101359061014001356133f1565b6104396134d4565b61043960048036036020811015610a1357600080fd5b50356134da565b610439613559565b610439613577565b61043961357e565b6104c460048036036020811015610a4857600080fd5b5035613584565b610109546040805160e060020a6304bda17f028152600481018490529051600092600160a060020a0316916304bda17f916024808301926020929190829003018186803b158015610a9f57600080fd5b505afa158015610ab3573d6000803e3d6000fd5b505050506040513d6020811015610ac957600080fd5b505190505b919050565b6000545b90565b610109546040805160e060020a63cdb507710281526004810184905290516000928392600160a060020a039091169163cdb5077191602480820192602092909190829003018186803b158015610b2f57600080fd5b505afa158015610b43573d6000803e3d6000fd5b505050506040513d6020811015610b5957600080fd5b5051610109546040805160e060020a6367c8bcf9028152600481018790529051929350600092600160a060020a03909216916367c8bcf991602480820192602092909190829003018186803b158015610bb157600080fd5b505afa158015610bc5573d6000803e3d6000fd5b505050506040513d6020811015610bdb57600080fd5b5051610109546040805160e060020a63b398eb21028152600481018890529051929350600092600160a060020a039092169163b398eb2191602480820192602092909190829003018186803b158015610c3357600080fd5b505afa158015610c47573d6000803e3d6000fd5b505050506040513d6020811015610c5d57600080fd5b505161010b5490915073__MoCHelperLib__________________________9063bc85889e90600090869085908790610c93611bd6565b610c9b6113ee565b6040518863ffffffff1660e060020a0281526004018088815260200187815260200186815260200185815260200184815260200183815260200182815260200197505050505050505060206040518083038186803b158015610cfc57600080fd5b505af4158015610d10573d6000803e3d6000fd5b505050506040513d6020811015610d2657600080fd5b505195945050505050565b6000610d4460f460020a61043302613013565b905090565b609b54600160a060020a031681565b60cf5481565b600073__MoCHelperLib__________________________6350b0c2b082610d83611bd6565b610d8b613191565b61010b546040518563ffffffff1660e060020a0281526004018085815260200184815260200183815260200182815260200194505050505060206040518083038186803b158015610ddb57600080fd5b505af4158015610def573d6000803e3d6000fd5b505050506040513d6020811015610e0557600080fd5b5051905090565b6000610d4461010a54610e32600060010154610e266115db565b9063ffffffff61367616565b9063ffffffff6136db16565b6000610d44610e4b611d88565b610e5c60f460020a61043302610ada565b613748565b60006101045460ff166003811115610e7557fe5b1415610e8057610fac565b6101045460ff16610e8f61329d565b6000610e99612dd3565b905061010d548111610ec857610ead61375e565b61010480546000919060ff19166001835b0217905550610f38565b61010d5481118015610edd575061010e548111155b15610ef65761010480546001919060ff19168280610ebe565b61010e5481118015610f0f5750610f0b61193b565b8111155b15610f295761010480546002919060ff1916600183610ebe565b610104805460ff191660031790555b6101045460ff166003811115610f4a57fe5b826003811115610f5657fe5b14610fa957610104546040517fb9eb8a309bf89f3159b39681f485b6430fec1035b2b457edbcdadcdece888c0b9160ff169080826003811115610f9557fe5b60ff16815260200191505060405180910390a15b50505b565b609b54600160a060020a031690565b61010e5490565b61010b5481565b609b546040805160e060020a63d994d6d50281523360048201529051600160a060020a039092169163d994d6d591602480820192602092909190829003018186803b15801561101957600080fd5b505afa15801561102d573d6000803e3d6000fd5b505050506040513d602081101561104357600080fd5b50516040805180820190915260168152600080516020613ea68339815191526020820152906110f35760405160e560020a62461bcd0281526004018080602001828103825283818151815260200191508051906020019080838360005b838110156110b85781810151838201526020016110a0565b50505050905090810190601f1680156110e55780820380516001836020036101000a031916815260200191505b509250505060405180910390fd5b5061010b55565b60008061110683612571565b905073__MoCHelperLib__________________________6366a4c71860008361112d610d31565b6040518463ffffffff1660e060020a02815260040180848152602001838152602001828152602001935050505060206040518083038186803b15801561117257600080fd5b505af4158015611186573d6000803e3d6000fd5b505050506040513d602081101561119c57600080fd5b50519392505050565b6000806111b0613191565b905060006111bc6116fd565b905060006111c86119ad565b905060006111d4611bd6565b905073__MoCHelperLib__________________________6393d1df9b60006111fa612214565b8761010e5461010b5487898b6040518963ffffffff1660e060020a028152600401808981526020018881526020018781526020018681526020018581526020018481526020018381526020018281526020019850505050505050505060206040518083038186803b15801561126e57600080fd5b505af4158015611282573d6000803e3d6000fd5b505050506040513d602081101561129857600080fd5b505194505050505090565b609b546040805160e060020a63d994d6d50281523360048201529051600160a060020a039092169163d994d6d591602480820192602092909190829003018186803b1580156112f157600080fd5b505afa158015611305573d6000803e3d6000fd5b505050506040513d602081101561131b57600080fd5b50516040805180820190915260168152600080516020613ea683398151915260208201529061138e5760405160e560020a62461bcd0281526020600482018181528351602484015283519092839260449091019190850190808383600083156110b85781810151838201526020016110a0565b5060d155565b6101115490565b6000806113a6612fca565b905060006113b2611394565b90508082106113c657600092505050610ad7565b60006113d8828463ffffffff61381316565b935050505090565b6101105490565b61010a5490565b6000610d446113fb611bd6565b610e5c61357e565b61010c5490565b6000806114156119ad565b905073__MoCHelperLib__________________________63a2f27571600061143b612214565b61144361193b565b61144b613191565b61010b54611457611bd6565b61145f6113ee565b896040518963ffffffff1660e060020a028152600401808981526020018881526020018781526020018681526020018581526020018481526020018381526020018281526020019850505050505050505060206040518083038186803b1580156114c857600080fd5b505af41580156114dc573d6000803e3d6000fd5b505050506040513d60208110156114f257600080fd5b505191505090565b60f160020a612c190281565b6000806101045460ff16600381111561151b57fe5b141561152957506000610ace565b600061153483613013565b90506000611540610d31565b6040805160e060020a6305721b51028152600060048201526024810185905260448101839052905191925073__MoCHelperLib__________________________916305721b5191606480820192602092909190829003018186803b1580156115a757600080fd5b505af41580156115bb573d6000803e3d6000fd5b505050506040513d60208110156115d157600080fd5b5051949350505050565b60004361010560009054906101000a9004600160a060020a0316600160a060020a0316637bac9c7c6040518163ffffffff1660e060020a02815260040160206040518083038186803b15801561163057600080fd5b505afa158015611644573d6000803e3d6000fd5b505050506040513d602081101561165a57600080fd5b50511161166957506000610ad7565b610d444361010560009054906101000a9004600160a060020a0316600160a060020a0316637bac9c7c6040518163ffffffff1660e060020a02815260040160206040518083038186803b1580156116bf57600080fd5b505afa1580156116d3573d6000803e3d6000fd5b505050506040513d60208110156116e957600080fd5b50519063ffffffff61381316565b60d15490565b600080611708612dd3565b61010c5461010d5461010e546040805160e060020a637ed1d54102815260006004820152602481019490945260448401929092526064830152608482018390525191925073__MoCHelperLib__________________________91637ed1d5419160a480820192602092909190829003018186803b1580156114c857600080fd5b61010c5481565b610109546040805160e060020a6367c8bcf9028152600481018490529051600092600160a060020a0316916367c8bcf9916024808301926020929190829003018186803b158015610a9f57600080fd5b609b546040805160e060020a63d994d6d50281523360048201529051600160a060020a039092169163d994d6d591602480820192602092909190829003018186803b15801561182d57600080fd5b505afa158015611841573d6000803e3d6000fd5b505050506040513d602081101561185757600080fd5b50516040805180820190915260168152600080516020613ea68339815191526020820152906118ca5760405160e560020a62461bcd0281526020600482018181528351602484015283519092839260449091019190850190808383600083156110b85781810151838201526020016110a0565b506101048054600160a060020a0383811661010090810261010060a860020a03198416179384905560408051938290048316808552919094049091166020830152825190927ff01c4ba47ffa16ddc86be088e27d891895d6944b4f1b88a7d30fedb0296de55c928290030190a15050565b610109546040805160e060020a63b398eb2102815260f460020a6104330260048201529051600092600160a060020a03169163b398eb21916024808301926020929190829003018186803b15801561199257600080fd5b505afa158015610def573d6000803e3d6000fd5b61010a5481565b6000806119b8610d31565b905060006119c4611bd6565b6000549091506119de90610e32838563ffffffff61367616565b9250505090565b60d15481565b609b546040805160e060020a63d994d6d50281523360048201529051600160a060020a039092169163d994d6d591602480820192602092909190829003018186803b158015611a3957600080fd5b505afa158015611a4d573d6000803e3d6000fd5b505050506040513d6020811015611a6357600080fd5b50516040805180820190915260168152600080516020613ea6833981519152602082015290611ad65760405160e560020a62461bcd0281526020600482018181528351602484015283519092839260449091019190850190808383600083156110b85781810151838201526020016110a0565b5061010e55565b61010d5490565b609b546040805160e060020a63d994d6d50281523360048201529051600160a060020a039092169163d994d6d591602480820192602092909190829003018186803b158015611b3257600080fd5b505afa158015611b46573d6000803e3d6000fd5b505050506040513d6020811015611b5c57600080fd5b50516040805180820190915260168152600080516020613ea6833981519152602082015290611bcf5760405160e560020a62461bcd0281526020600482018181528351602484015283519092839260449091019190850190808383600083156110b85781810151838201526020016110a0565b5061010d55565b600080600061010460019054906101000a9004600160a060020a0316600160a060020a03166359e02dd76040518163ffffffff1660e060020a028152600401604080518083038186803b158015611c2c57600080fd5b505afa158015611c40573d6000803e3d6000fd5b505050506040513d6040811015611c5657600080fd5b508051602090910151909250905080611cb9576040805160e560020a62461bcd02815260206004820152601c60248201527f4f7261636c652068617665206e6f20426974636f696e20507269636500000000604482015290519081900360640190fd5b50905090565b606854600160a060020a031681565b610109546040805160e060020a63cdb507710281526004810184905290516000928392600160a060020a039091169163cdb5077191602480820192602092909190829003018186803b158015611d2357600080fd5b505afa158015611d37573d6000803e3d6000fd5b505050506040513d6020811015611d4d57600080fd5b505190506000611d5c84612102565b9050818110611d7057600092505050610ace565b611d80828263ffffffff61381316565b949350505050565b600073__MoCHelperLib__________________________63bc85889e82611dad612214565b611db561193b565b611dbd613191565b61010b54611dc9611bd6565b611dd16113ee565b6040518863ffffffff1660e060020a0281526004018088815260200187815260200186815260200185815260200184815260200183815260200182815260200197505050505050505060206040518083038186803b158015610ddb57600080fd5b610109546040805160e260020a63222766d9028152600481018490529051600092600160a060020a03169163889d9b64916024808301926020929190829003018186803b158015610a9f57600080fd5b61010f5481565b610109546040805160e360020a630c677451028152600481018490529051600092600160a060020a03169163633ba288916024808301926020929190829003018186803b158015611ed957600080fd5b505afa158015611eed573d6000803e3d6000fd5b505050506040513d6020811015611f0357600080fd5b5051158015611f8a5750610109546040805160e060020a63a9e61b4f028152600481018590529051600160a060020a039092169163a9e61b4f91602480820192602092909190829003018186803b158015611f5d57600080fd5b505afa158015611f71573d6000803e3d6000fd5b505050506040513d6020811015611f8757600080fd5b50515b1561201257610109546040805160e060020a63b398eb21028152600481018590529051600160a060020a039092169163b398eb2191602480820192602092909190829003018186803b158015611fdf57600080fd5b505afa158015611ff3573d6000803e3d6000fd5b505050506040513d602081101561200957600080fd5b50519050610ace565b610109546040805160e060020a63cdb50771028152600481018590529051600092600160a060020a03169163cdb50771916024808301926020929190829003018186803b15801561206257600080fd5b505afa158015612076573d6000803e3d6000fd5b505050506040513d602081101561208c57600080fd5b50519050600061209b84612102565b6040805160e260020a63386c0d21028152600060048201526024810185905260448101839052905191925073__MoCHelperLib__________________________9163e1b0348491606480820192602092909190829003018186803b1580156115a757600080fd5b610109546040805160e060020a6367c8bcf90281526004810184905290516000928392600160a060020a03909116916367c8bcf991602480820192602092909190829003018186803b15801561215757600080fd5b505afa15801561216b573d6000803e3d6000fd5b505050506040513d602081101561218157600080fd5b5051905073__MoCHelperLib__________________________6350b0c2b060006121a9611bd6565b8461010b546040518563ffffffff1660e060020a0281526004018085815260200184815260200183815260200182815260200194505050505060206040518083038186803b15801561117257600080fd5b6101115481565b61010b5490565b670de0b6b3a764000081565b61010654610109546040805160e060020a6304bda17f02815260f160020a612c1902600482015290516000938493600160a060020a039182169363dcbfd36c9391909216916304bda17f916024808301926020929190829003018186803b15801561227e57600080fd5b505afa158015612292573d6000803e3d6000fd5b505050506040513d60208110156122a857600080fd5b50516040805160e060020a63ffffffff8516028152600481019290925260f160020a612c19026024830152516044808301926020929190829003018186803b1580156122f357600080fd5b505afa158015612307573d6000803e3d6000fd5b505050506040513d602081101561231d57600080fd5b5051610109546040805160e260020a63222766d902815260f460020a6104330260048201529051929350600092600160a060020a039092169163889d9b6491602480820192602092909190829003018186803b15801561237c57600080fd5b505afa158015612390573d6000803e3d6000fd5b505050506040513d60208110156123a657600080fd5b505161010f549091506119de9082906123c5908563ffffffff61381316565b9063ffffffff61381316565b609b546040805160e060020a63d994d6d50281523360048201529051600160a060020a039092169163d994d6d591602480820192602092909190829003018186803b15801561241f57600080fd5b505afa158015612433573d6000803e3d6000fd5b505050506040513d602081101561244957600080fd5b50516040805180820190915260168152600080516020613ea68339815191526020820152906124bc5760405160e560020a62461bcd0281526020600482018181528351602484015283519092839260449091019190850190808383600083156110b85781810151838201526020016110a0565b506002548110612516576040805160e560020a62461bcd02815260206004820152601f60248201527f72617465206973206c6f776572207468616e206d6f63507265636973696f6e00604482015290519081900360640190fd5b61010c55565b60d05490565b60008061252d612dd3565b905060006101045460ff16600381111561254357fe5b14158015612554575061010d548111155b15612563576001915050610ad7565b600091505090565b60d05481565b610109546040805160e060020a6367c8bcf902815260f460020a61043302600482015290516000928392600160a060020a03909116916367c8bcf991602480820192602092909190829003018186803b1580156125cd57600080fd5b505afa1580156125e1573d6000803e3d6000fd5b505050506040513d60208110156125f757600080fd5b50519050600061260684613386565b9050600073__MoCHelperLib__________________________631cd89f6190918461010b54612633611bd6565b866040518663ffffffff1660e060020a028152600401808681526020018581526020018481526020018381526020018281526020019550505050505060206040518083038186803b1580156115a757600080fd5b60008061269383612571565b905073__MoCHelperLib__________________________6366a4c71860008361112d87613013565b610109546040805160e060020a6367c8bcf902815260f460020a6104330260048201529051600092600160a060020a0316916367c8bcf9916024808301926020929190829003018186803b15801561199257600080fd5b600061272b60d15460d05461387390919063ffffffff16565b431015905090565b610109546040805160e060020a63b398eb21028152600481018490529051600092600160a060020a03169163b398eb21916024808301926020929190829003018186803b158015610a9f57600080fd5b609b546040805160e060020a63d994d6d50281523360048201529051600160a060020a039092169163d994d6d591602480820192602092909190829003018186803b1580156127d157600080fd5b505afa1580156127e5573d6000803e3d6000fd5b505050506040513d60208110156127fb57600080fd5b50516040805180820190915260168152600080516020613ea683398151915260208201529061286e5760405160e560020a62461bcd0281526020600482018181528351602484015283519092839260449091019190850190808383600083156110b85781810151838201526020016110a0565b50612878816138d0565b50565b609b546040805160e060020a63d994d6d50281523360048201529051600160a060020a039092169163d994d6d591602480820192602092909190829003018186803b1580156128c957600080fd5b505afa1580156128dd573d6000803e3d6000fd5b505050506040513d60208110156128f357600080fd5b50516040805180820190915260168152600080516020613ea68339815191526020820152906129665760405160e560020a62461bcd0281526020600482018181528351602484015283519092839260449091019190850190808383600083156110b85781810151838201526020016110a0565b50609b8054600160a060020a031916600160a060020a0392909216919091179055565b6101105481565b6000610d446129a660f460020a6104330261178f565b6134da565b609b546040805160e060020a63d994d6d50281523360048201529051600160a060020a039092169163d994d6d591602480820192602092909190829003018186803b1580156129f957600080fd5b505afa158015612a0d573d6000803e3d6000fd5b505050506040513d6020811015612a2357600080fd5b50516040805180820190915260168152600080516020613ea6833981519152602082015290612a965760405160e560020a62461bcd0281526020600482018181528351602484015283519092839260449091019190850190808383600083156110b85781810151838201526020016110a0565b5061010a55565b6101045460ff1681565b610109546040805160e060020a63cdb507710281526004810184905290516000928392600160a060020a039091169163cdb5077191602480820192602092909190829003018186803b158015612afc57600080fd5b505afa158015612b10573d6000803e3d6000fd5b505050506040513d6020811015612b2657600080fd5b5051610109546040805160e060020a6367c8bcf9028152600481018790529051929350600092600160a060020a03909216916367c8bcf991602480820192602092909190829003018186803b158015612b7e57600080fd5b505afa158015612b92573d6000803e3d6000fd5b505050506040513d6020811015612ba857600080fd5b505190506000612bb66119ad565b610109546040805160e060020a63b398eb21028152600481018990529051929350600092600160a060020a039092169163b398eb2191602480820192602092909190829003018186803b158015612c0c57600080fd5b505afa158015612c20573d6000803e3d6000fd5b505050506040513d6020811015612c3657600080fd5b505161010b5490915073__MoCHelperLib__________________________9063a2f2757190600090879085908890612c6c611bd6565b612c746113ee565b8a6040518963ffffffff1660e060020a028152600401808981526020018881526020018781526020018681526020018581526020018481526020018381526020018281526020019850505050505050505060206040518083038186803b158015612cdd57600080fd5b505af4158015612cf1573d6000803e3d6000fd5b505050506040513d6020811015612d0757600080fd5b50519695505050505050565b603554610100900460ff1680612d2c5750612d2c613933565b80612d3a575060355460ff16155b612d785760405160e560020a62461bcd02815260040180806020018281038252602e815260200180613e78602e913960400191505060405180910390fd5b603554610100900460ff16158015612da3576035805460ff1961ff0019909116610100171660011790555b609b8054600160a060020a031916600160a060020a0384161790558015610fa9576035805461ff00191690555050565b600080612dde610d5e565b905073__MoCHelperLib__________________________63e1b034846000612e04612214565b846040518463ffffffff1660e060020a02815260040180848152602001838152602001828152602001935050505060206040518083038186803b1580156114c857600080fd5b600080612e55610d5e565b905061010f548110612e6b576000915050610ad7565b61010f54612e7f908263ffffffff61381316565b91505090565b6068546040805160e060020a633af32abf028152336004820181905291519192600160a060020a031691633af32abf91602480820192602092909190829003018186803b158015612ed557600080fd5b505afa158015612ee9573d6000803e3d6000fd5b505050506040513d6020811015612eff57600080fd5b5051612f43576040805160e560020a62461bcd02815260206004820152601a6024820152600080516020613e58833981519152604482015290519081900360640190fd5b61010f54612f57908363ffffffff61381316565b61010f555050565b60cf5490565b610109546040805160e060020a63cdb50771028152600481018490529051600092600160a060020a03169163cdb50771916024808301926020929190829003018186803b158015610a9f57600080fd5b610104546101009004600160a060020a031690565b610108546040805160e060020a6318160ddd0281529051600092600160a060020a0316916318160ddd916004808301926020929190829003018186803b15801561199257600080fd5b610109546040805160e060020a6304bda17f0281526004810184905290516000928392600160a060020a03909116916304bda17f91602480820192602092909190829003018186803b15801561306857600080fd5b505afa15801561307c573d6000803e3d6000fd5b505050506040513d602081101561309257600080fd5b5051905060006130a184612102565b610109546040805160e060020a63cdb50771028152600481018890529051929350600092600160a060020a039092169163cdb5077191602480820192602092909190829003018186803b1580156130f757600080fd5b505afa15801561310b573d6000803e3d6000fd5b505050506040513d602081101561312157600080fd5b50516040805160e060020a63027c48a102815260006004820152602481018390526044810185905260648101869052905191925073__MoCHelperLib__________________________9163027c48a191608480820192602092909190829003018186803b158015610cfc57600080fd5b610107546040805160e060020a6318160ddd0281529051600092600160a060020a0316916318160ddd916004808301926020929190829003018186803b15801561199257600080fd5b60f460020a6104330281565b60015490565b6000806131f7610d31565b905060006132036116fd565b6040805160e260020a632d4f109b028152600060048201526024810185905260448101839052905191925073__MoCHelperLib__________________________9163b53c426c91606480820192602092909190829003018186803b15801561326a57600080fd5b505af415801561327e573d6000803e3d6000fd5b505050506040513d602081101561329457600080fd5b50519250505090565b610fac6132a8611bd6565b613939565b61010e5481565b6068546040805160e060020a633af32abf028152336004820181905291519192600160a060020a031691633af32abf91602480820192602092909190829003018186803b15801561330457600080fd5b505afa158015613318573d6000803e3d6000fd5b505050506040513d602081101561332e57600080fd5b5051613372576040805160e560020a62461bcd02815260206004820152601a6024820152600080516020613e58833981519152604482015290519081900360640190fd5b61010f54612f57908363ffffffff61387316565b60008061339283611e89565b9050600073__MoCHelperLib__________________________63df3992079091836040518363ffffffff1660e060020a028152600401808381526020018281526020019250505060206040518083038186803b15801561117257600080fd5b603554610100900460ff168061340a575061340a613933565b80613418575060355460ff16155b6134565760405160e560020a62461bcd02815260040180806020018281038252602e815260200180613e78602e913960400191505060405180910390fd5b603554610100900460ff16158015613481576035805460ff1961ff0019909116610100171660011790555b6134896139e3565b6134928c613a15565b61349a613ad5565b6134a98b8b8b8b8b8b88613d98565b6134b4858585613dfe565b80156134c6576035805461ff00191690555b505050505050505050505050565b60025490565b600073__MoCHelperLib__________________________637b5c24eb8284613500613191565b6040518463ffffffff1660e060020a02815260040180848152602001838152602001828152602001935050505060206040518083038186803b15801561354557600080fd5b505af4158015610ab3573d6000803e3d6000fd5b6000610d4461356661140a565b610e5c60f460020a61043302612aa7565b61010d5481565b60ce5490565b609b546040805160e060020a63d994d6d50281523360048201529051600160a060020a039092169163d994d6d591602480820192602092909190829003018186803b1580156135d257600080fd5b505afa1580156135e6573d6000803e3d6000fd5b505050506040513d60208110156135fc57600080fd5b50516040805180820190915260168152600080516020613ea683398151915260208201529061366f5760405160e560020a62461bcd0281526020600482018181528351602484015283519092839260449091019190850190808383600083156110b85781810151838201526020016110a0565b5061011155565b600082613685575060006136d5565b8282028284828161369257fe5b04146136d25760405160e560020a62461bcd028152600401808060200182810382526021815260200180613e376021913960400191505060405180910390fd5b90505b92915050565b6000808211613734576040805160e560020a62461bcd02815260206004820152601a60248201527f536166654d6174683a206469766973696f6e206279207a65726f000000000000604482015290519081900360640190fd5b600082848161373f57fe5b04949350505050565b600081831061375757816136d2565b5090919050565b600061377461376b610d5e565b61010f54613748565b905073__MoCHelperLib__________________________630a4be82360008361379b613191565b6040518463ffffffff1660e060020a02815260040180848152602001838152602001828152602001935050505060206040518083038186803b1580156137e057600080fd5b505af41580156137f4573d6000803e3d6000fd5b505050506040513d602081101561380a57600080fd5b50516101105550565b60008282111561386d576040805160e560020a62461bcd02815260206004820152601e60248201527f536166654d6174683a207375627472616374696f6e206f766572666c6f770000604482015290519081900360640190fd5b50900390565b6000828201838110156136d2576040805160e560020a62461bcd02815260206004820152601b60248201527f536166654d6174683a206164646974696f6e206f766572666c6f770000000000604482015290519081900360640190fd5b670de0b6b3a764000081111561392e576040805160e560020a62461bcd0281526020600482015260186024820152604160020a7724b73b30b634b21039b6b7b7ba3434b733903330b1ba37b902604482015290519081900360640190fd5b60cf55565b303b1590565b613941612712565b1561287857600061395d60cf548361367690919063ffffffff16565b90506000613997670de0b6b3a7640000610e328461398b61397c613e17565b60ce549063ffffffff61367616565b9063ffffffff61387316565b4360d05560ce819055604080518581526020810183905281519293507f8cf60c7db6ef7d88fad2695a615a151ecebf27045d4887b69fdf5ce5b46fc619929081900390910190a1505050565b60408051606081018252670de0b6b3a76400008082526001602083018190529190920182905260008290558055600255565b603554610100900460ff1680613a2e5750613a2e613933565b80613a3c575060355460ff16155b613a7a5760405160e560020a62461bcd02815260040180806020018281038252602e815260200180613e78602e913960400191505060405180910390fd5b603554610100900460ff16158015613aa5576035805460ff1961ff0019909116610100171660011790555b60688054600160a060020a031916600160a060020a0384161790558015610fa9576035805461ff00191690555050565b606860009054906101000a9004600160a060020a0316600160a060020a031663b29ead6c6040518163ffffffff1660e060020a02815260040160206040518083038186803b158015613b2657600080fd5b505afa158015613b3a573d6000803e3d6000fd5b505050506040513d6020811015613b5057600080fd5b50516101058054600160a060020a031916600160a060020a039283161790556068546040805160e060020a6399c6fe73028152905191909216916399c6fe73916004808301926020929190829003018186803b158015613baf57600080fd5b505afa158015613bc3573d6000803e3d6000fd5b505050506040513d6020811015613bd957600080fd5b50516101078054600160a060020a031916600160a060020a039283161790556068546040805160e060020a63d31cc8310281529051919092169163d31cc831916004808301926020929190829003018186803b158015613c3857600080fd5b505afa158015613c4c573d6000803e3d6000fd5b505050506040513d6020811015613c6257600080fd5b50516101088054600160a060020a031916600160a060020a039283161790556068546040805160e160020a634aadab850281529051919092169163955b570a916004808301926020929190829003018186803b158015613cc157600080fd5b505afa158015613cd5573d6000803e3d6000fd5b505050506040513d6020811015613ceb57600080fd5b50516101098054600160a060020a031916600160a060020a039283161790556068546040805160e160020a63679ab6ed0281529051919092169163cf356dda916004808301926020929190829003018186803b158015613d4a57600080fd5b505afa158015613d5e573d6000803e3d6000fd5b505050506040513d6020811015613d7457600080fd5b50516101068054600160a060020a031916600160a060020a03909216919091179055565b61010d9490945561010e9290925561010c5561010a55609b8054600160a060020a031916600160a060020a03948516179055610104805461010060a860020a03191661010093909416929092029290921760ff19166003179055600161010b5561011155565b613e07826138d0565b4360d05560ce929092555060d155565b6000610d4460cf54670de0b6b3a764000061381390919063ffffffff1656fe536166654d6174683a206d756c7469706c69636174696f6e206f766572666c6f7741646472657373206973206e6f742077686974656c6973746564000000000000436f6e747261637420696e7374616e63652068617320616c7265616479206265656e20696e697469616c697a65646e6f745f617574686f72697a65645f6368616e67657200000000000000000000a165627a7a72305820bd139c95eaba06b0c8f3ee83ab566d4961bf22cc93614079fd5da04adfa1354f0029",
  "source": "pragma solidity 0.5.8;\n\nimport \"openzeppelin-solidity/contracts/math/Math.sol\";\nimport \"./interface/BtcPriceProvider.sol\";\nimport \"./MoCEMACalculator.sol\";\nimport \"./base/MoCBase.sol\";\nimport \"./MoCLibConnection.sol\";\nimport \"./MoCBProxManager.sol\";\nimport \"./token/DocToken.sol\";\nimport \"./token/BProToken.sol\";\nimport \"./MoCSettlement.sol\";\nimport \"moc-governance/contracts/Governance/Governed.sol\";\nimport \"moc-governance/contracts/Governance/IGovernor.sol\";\n\ncontract MoCState is MoCLibConnection, MoCBase, MoCEMACalculator {\n  using Math for uint256;\n  using SafeMath for uint256;\n\n  // This is the current state.\n  States public state;\n\n  event StateTransition(States newState);\n  event PriceProviderUpdated(address oldAddress, address newAddress);\n  // Contracts\n  BtcPriceProvider internal btcPriceProvider;\n  MoCSettlement internal mocSettlement;\n  MoCConverter internal mocConverter;\n  DocToken internal docToken;\n  BProToken internal bproToken;\n  MoCBProxManager internal bproxManager;\n\n  // One Day based on 15 seconds blocks\n  uint256 public dayBlockSpan;\n  // Relation between DOC and dollar\n  uint256 public peg;\n  // BPro max discount rate\n  // Reflects the discount spot rate at Liquidation level\n  uint256 public bproMaxDiscountRate;\n  // Liquidation limit\n  // [using mocPrecision]\n  uint256 public liq;\n  // BPro with discount limit\n  // [using mocPrecision]\n  uint256 public utpdu;\n  // Complete amount of Bitcoin in the system\n  // this represents basically MoC Balance\n  uint256 public rbtcInSystem;\n  // Price to use at doc redemption at\n  // liquidation event\n  uint256 public liquidationPrice;\n\n  function initialize(\n    address connectorAddress,\n    address _governor,\n    address _btcPriceProvider,\n    uint256 _liq,\n    uint256 _utpdu,\n    uint256 _maxDiscRate,\n    uint256 _dayBlockSpan,\n    uint256 _ema,\n    uint256 _smoothFactor,\n    uint256 _emaBlockSpan,\n    uint256 _maxMintBPro\n  ) public initializer {\n    initializePrecisions();\n    initializeBase(connectorAddress);\n    initializeContracts();\n    initializeValues(_governor, _btcPriceProvider,_liq, _utpdu, _maxDiscRate, _dayBlockSpan, _maxMintBPro);\n    initializeMovingAverage(_ema, _smoothFactor, _emaBlockSpan);\n  }\n\n  /**\n  * @param rate Discount rate at liquidation level [using mocPrecision]\n  **/\n  function setMaxDiscountRate(uint256 rate) public onlyAuthorizedChanger() {\n    require(rate < mocLibConfig.mocPrecision, \"rate is lower than mocPrecision\");\n\n    bproMaxDiscountRate = rate;\n  }\n\n    /**\n   * @dev return the value of the BPro max discount rate configuration param\n   * @return bproMaxDiscountRate BPro max discount rate\n   */\n  function getMaxDiscountRate() public view returns(uint256) {\n    return bproMaxDiscountRate;\n  }\n\n  /**\n  * @dev Defines how many blocks there are in a day\n  * @param blockSpan blocks there are in a day\n  **/\n  function setDayBlockSpan(uint256 blockSpan) public onlyAuthorizedChanger() {\n    dayBlockSpan = blockSpan;\n  }\n\n  /**\n  * @dev Sets a new BTCProvider contract\n  * @param btcProviderAddress blocks there are in a day\n  **/\n  function setBtcPriceProvider(address btcProviderAddress) public onlyAuthorizedChanger() {\n    address oldBtcPriceProviderAddress = address(btcPriceProvider);\n    btcPriceProvider = BtcPriceProvider(btcProviderAddress);\n    emit PriceProviderUpdated(oldBtcPriceProviderAddress, address(btcPriceProvider));\n  }\n\n  /**\n  * @dev Gets the BTCPriceProviderAddress\n  * @return btcPriceProvider blocks there are in a day\n  **/\n  function getBtcPriceProvider() public view returns(address) {\n    return address(btcPriceProvider);\n  }\n  /**\n   * @dev Gets how many blocks there are in a day\n   * @return blocks there are in a day\n   */\n  function getDayBlockSpan() public view returns(uint256) {\n    return dayBlockSpan;\n  }\n  /******STATE MACHINE*********/\n\n  enum States {\n    // State 0\n    Liquidated,\n    // State 1\n    BProDiscount,\n    // State 2\n    BelowCobj,\n    // State 3\n    AboveCobj\n  }\n\n/**\n  * @dev Subtract the btc amount passed by parameter to the total Bitcoin Amount\n  * @param btcAmount Amount that will be subtract to rbtcInSystem\n  */\n  function subtractRbtcFromSystem(uint256 btcAmount) public onlyWhitelisted(msg.sender) {\n    rbtcInSystem = rbtcInSystem.sub(btcAmount);\n  }\n\n  /**\n  * @dev btcAmount Add the btc amount passed by parameter to the total Bitcoin Amount\n  * @param btcAmount Amount that will be added to rbtcInSystem\n  */\n  function addToRbtcInSystem(uint256 btcAmount) public onlyWhitelisted(msg.sender) {\n    rbtcInSystem = rbtcInSystem.add(btcAmount);\n  }\n\n  /**\n    @dev All BPros in circulation\n   */\n  function bproTotalSupply() public view returns(uint256) {\n    return bproToken.totalSupply();\n  }\n\n  /**\n    @dev All docs in circulation\n   */\n  function docTotalSupply() public view returns(uint256) {\n    return docToken.totalSupply();\n  }\n\n  /**\n    @dev Target coverage for complete system\n   */\n  function cobj() public view returns(uint256) {\n    return bproxManager.getBucketCobj(BUCKET_C0);\n  }\n\n  /**\n    * @dev Amount of Bitcoins in the system excluding\n    * BTCx values and interests holdings\n    */\n  function collateralRbtcInSystem() public view returns(uint256) {\n    uint256 rbtcInBtcx = mocConverter.bproxToBtc(bproxManager.getBucketNBPro(BUCKET_X2),BUCKET_X2);\n    uint256 rbtcInBag = bproxManager.getInrateBag(BUCKET_C0);\n\n    return rbtcInSystem.sub(rbtcInBtcx).sub(rbtcInBag);\n  }\n\n  /** @dev GLOBAL Coverage\n    * @return coverage [using mocPrecision]\n    */\n  function globalCoverage() public view returns(uint256) {\n    uint256 lB = globalLockedBitcoin();\n\n    return mocLibConfig.coverage(collateralRbtcInSystem(), lB);\n  }\n\n  /**\n  * @dev BUCKET lockedBitcoin\n  * @param bucket Name of the bucket used\n  * @return lockedBitcoin amount [using reservePrecision]\n  */\n  function lockedBitcoin(bytes32 bucket) public view returns(uint256) {\n    uint256 nDoc = bproxManager.getBucketNDoc(bucket);\n\n    return mocLibConfig.lockedBitcoin(getBitcoinPrice(), nDoc, peg);\n  }\n\n  /**\n  * @dev Gets RBTC in BitPro within specified bucket\n  * @param bucket Name of the bucket used\n  * @return Bitcoin amount of BitPro in Bucket [using reservePrecision]\n  */\n  function getRbtcInBitPro(bytes32 bucket) public view returns(uint256) {\n    uint256 nB = bproxManager.getBucketNBTC(bucket);\n    uint256 lB = lockedBitcoin(bucket);\n\n    if ( lB >= nB ){\n      return 0;\n    }\n\n    return nB.sub(lB);\n  }\n\n  /**\n  * @dev Gets the RBTC in the contract that not corresponds\n    to Doc collateral\n  * @return RBTC remainder [using reservePrecision]\n  */\n  function getRbtcRemainder() public view returns(uint256) {\n    uint256 lB = globalLockedBitcoin();\n\n    if ( lB >= rbtcInSystem ){\n      return 0;\n    }\n\n    return rbtcInSystem.sub(lB);\n  }\n\n  /**\n  * @dev BUCKET Coverage\n  * @param bucket Name of the bucket used\n  * @return coverage [using coveragePrecision]\n  */\n  function coverage(bytes32 bucket) public view returns(uint256) {\n    if (!bproxManager.isBucketBase(bucket) && bproxManager.isBucketEmpty(bucket)) {\n      return bproxManager.getBucketCobj(bucket);\n    }\n\n    uint256 nB = bproxManager.getBucketNBTC(bucket);\n    uint256 lB = lockedBitcoin(bucket);\n\n    return mocLibConfig.coverage(nB, lB);\n  }\n\n    /**\n  * @dev Abundance ratio, receives tha amount of doc to use the value of doc0 and Doc total supply\n  * @return abundance ratio [using mocPrecision]\n  */\n  function abundanceRatio(uint256 doc0) public view returns(uint256) {\n    return mocLibConfig.abundanceRatio(doc0, docTotalSupply());\n  }\n\n  /**\n  * @dev Relation between docs in bucket 0 and Doc total supply\n  * @return abundance ratio [using mocPrecision]\n  */\n  function currentAbundanceRatio() public view returns(uint256) {\n    return abundanceRatio(getBucketNDoc(BUCKET_C0));\n  }\n\n  /**\n  * @dev BUCKET Leverage\n  * @param bucket Name of the bucket used\n  * @return coverage [using mocPrecision]\n  */\n  function leverage(bytes32 bucket) public view returns(uint256) {\n    uint256 cov = coverage(bucket);\n\n    return mocLibConfig.leverageFromCoverage(cov);\n  }\n\n  /**\n  * @dev GLOBAL maxDoc\n  * @return abundance ratio [using mocPrecision]\n  */\n  function globalMaxDoc() public view returns(uint256) {\n    return mocLibConfig.maxDoc(collateralRbtcInSystem(), cobj(), docTotalSupply(), peg, getBitcoinPrice(), getBcons());\n  }\n\n  /**\n  * @return amount of docs in bucket 0, that can be redeemed outside of settlement [using mocPrecision]\n  */\n  function freeDoc() public view returns(uint256) {\n    return bproxManager.getBucketNDoc(BUCKET_C0);\n  }\n\n  /**\n  * @dev BUCKET maxDoc\n  * @return abundance ratio [using mocPrecision]\n  */\n  function maxDoc(bytes32 bucket) public view returns(uint256) {\n    uint256 nB = bproxManager.getBucketNBTC(bucket);\n    uint256 nDoc = bproxManager.getBucketNDoc(bucket);\n    uint256 bktCobj = bproxManager.getBucketCobj(bucket);\n\n    return mocLibConfig.maxDoc(nB, bktCobj, nDoc, peg, getBitcoinPrice(), getBcons());\n  }\n\n  /**\n  * @dev GLOBAL maxBPro\n  * @return maxBPro for redeem [using reservePrecision]\n  */\n  function globalMaxBPro() public view returns(uint256) {\n    uint256 bproPrice = bproUsdPrice();\n\n    return mocLibConfig.maxBPro(\n      collateralRbtcInSystem(), cobj(), docTotalSupply(), peg, getBitcoinPrice(), getBcons(), bproPrice\n    );\n  }\n\n  /**\n  * @dev ABSOLUTE maxDoc\n  * @return maxDoc to issue [using mocPrecision]\n  */\n  function absoluteMaxDoc() public view returns(uint256) {\n    return Math.min(globalMaxDoc(), maxDoc(BUCKET_C0));\n  }\n\n  /** @dev BUCKET maxBPro to redeem / mint\n      @param bucket Name of the bucket used\n    * @return maxBPro for redeem [using mocPrecision]\n    */\n  function maxBPro(bytes32 bucket) public view returns(uint256) {\n    uint256 nB = bproxManager.getBucketNBTC(bucket);\n    uint256 nDoc = bproxManager.getBucketNDoc(bucket);\n    uint256 bproPrice = bproUsdPrice();\n    uint256 bktCobj = bproxManager.getBucketCobj(bucket);\n\n    return mocLibConfig.maxBPro(\n      nB, bktCobj, nDoc, peg, getBitcoinPrice(), getBcons(), bproPrice\n    );\n  }\n\n /**\n  * @dev GLOBAL max bprox to mint\n  * @param bucket Name of the bucket used\n  * @return maxBProx [using reservePrecision]\n  */\n  function maxBProx(bytes32 bucket) public view returns(uint256) {\n    uint256 maxBtc = maxBProxBtcValue(bucket);\n\n    return mocLibConfig.maxBProWithBtc(maxBtc, bucketBProTecPrice(bucket));\n  }\n\n  /**\n  * @dev GLOBAL max bprox to mint\n  * @param bucket Name of the bucket used\n  * @return maxBProx BTC value to mint [using reservePrecision]\n  */\n  function maxBProxBtcValue(bytes32 bucket) public view returns(uint256) {\n    uint256 nDoc0 = bproxManager.getBucketNDoc(BUCKET_C0);\n    uint256 bucketLev = leverage(bucket);\n\n    return mocLibConfig.maxBProxBtcValue(nDoc0, peg, getBitcoinPrice(), bucketLev);\n  }\n\n  /** @dev ABSOLUTE maxBPro\n  * @return maxDoc to issue [using mocPrecision]\n  */\n  function absoluteMaxBPro() public view returns(uint256) {\n    return Math.min(globalMaxBPro(), maxBPro(BUCKET_C0));\n  }\n\n  /**\n  * @dev DISCOUNT maxBPro\n  * @return maxBPro for mint with discount [using mocPrecision]\n  */\n  function maxBProWithDiscount() public view returns(uint256) {\n    uint256 nDoc = docTotalSupply();\n    uint256 bproSpotDiscount = bproSpotDiscountRate();\n    uint256 bproPrice = bproUsdPrice();\n    uint256 btcPrice = getBitcoinPrice();\n\n    return mocLibConfig.maxBProWithDiscount(collateralRbtcInSystem(), nDoc, utpdu, peg, btcPrice, bproPrice,\n      bproSpotDiscount);\n  }\n\n  /**\n  * @dev GLOBAL lockedBitcoin\n  * @return lockedBitcoin amount [using reservePrecision]\n  */\n  function globalLockedBitcoin() public view returns(uint256) {\n    return mocLibConfig.lockedBitcoin(getBitcoinPrice(), docTotalSupply(), peg);\n  }\n\n  /**\n  * @dev BTC price of BPro\n  * @return the BPro Tec Price [using reservePrecision]\n  */\n  function bproTecPrice() public view returns(uint256) {\n    return bucketBProTecPrice(BUCKET_C0);\n  }\n\n  /**\n  * @dev BUCKET BTC price of BPro\n  * @param bucket Name of the bucket used\n  * @return the BPro Tec Price [using reservePrecision]\n  */\n  function bucketBProTecPrice(bytes32 bucket) public view returns(uint256) {\n    uint256 nBPro = bproxManager.getBucketNBPro(bucket);\n    uint256 lb = lockedBitcoin(bucket);\n    uint256 nB = bproxManager.getBucketNBTC(bucket);\n\n    return mocLibConfig.bproTecPrice(nB, lb, nBPro);\n  }\n\n  /**\n  * @dev BTC price of BPro with spot discount applied\n  * @return the BPro Tec Price [using reservePrecision]\n  */\n  function bproDiscountPrice() public view returns(uint256) {\n    uint256 bproTecprice = bproTecPrice();\n    uint256 discountRate = bproSpotDiscountRate();\n\n    return mocLibConfig.applyDiscountRate(bproTecprice, discountRate);\n  }\n\n  /**\n  * @dev BPro USD PRICE\n  * @return the BPro USD Price [using mocPrecision]\n  */\n  function bproUsdPrice() public view returns(uint256) {\n    uint256 bproBtcPrice = bproTecPrice();\n    uint256 btcPrice = getBitcoinPrice();\n\n    return btcPrice.mul(bproBtcPrice).div(mocLibConfig.reservePrecision);\n  }\n\n /**\n  * @dev GLOBAL max bprox to mint\n  * @param bucket Name of the bucket used\n  * @return max BPro allowed to be spent to mint BProx [using reservePrecision]\n  **/\n  function maxBProxBProValue(bytes32 bucket) public view returns(uint256) {\n    uint256 btcValue = maxBProxBtcValue(bucket);\n\n    return mocLibConfig.maxBProWithBtc(btcValue, bproTecPrice());\n  }\n\n  /**\n  * @dev BUCKET BProx price in BPro\n  * @param bucket Name of the bucket used\n  * @return BProx BPro Price [using mocPrecision]\n  */\n  function bproxBProPrice(bytes32 bucket) public view returns(uint256) {\n    // Otherwise, it reverts.\n    if (state == States.Liquidated) {\n      return 0;\n    }\n\n    uint256 bproxBtcPrice = bucketBProTecPrice(bucket);\n    uint256 bproBtcPrice = bproTecPrice();\n\n    return mocLibConfig.bproxBProPrice(bproxBtcPrice, bproBtcPrice);\n  }\n\n  /**\n  * @dev GLOBAL BTC Discount rate to apply to BProPrice.\n  * @return BPro discount rate [using DISCOUNT_PRECISION].\n   */\n  function bproSpotDiscountRate() public view returns(uint256) {\n    uint256 cov = globalCoverage();\n\n    return mocLibConfig.bproSpotDiscountRate(bproMaxDiscountRate, liq, utpdu, cov);\n  }\n\n  /**\n    @dev Calculates the number of days to next settlement based dayBlockSpan\n   */\n  function daysToSettlement() public view returns(uint256) {\n    return blocksToSettlement().mul(mocLibConfig.dayPrecision).div(dayBlockSpan);\n  }\n\n  /**\n    @dev Number of blocks to settlement\n   */\n  function blocksToSettlement() public view returns(uint256) {\n    if (mocSettlement.nextSettlementBlock() <= block.number) {\n      return 0;\n    }\n\n    return mocSettlement.nextSettlementBlock().sub(block.number);\n  }\n\n  /**\n   * @dev Verifies if forced liquidation is reached checking if globalCoverage <= liquidation (currently 1.04)\n   * @return true if liquidation state is reached, false otherwise\n   */\n  function isLiquidationReached() public view returns(bool) {\n    uint256 cov = globalCoverage();\n    if (state != States.Liquidated && cov <= liq)\n      return true;\n    return false;\n  }\n\n  /**\n    @dev Returns the price to use for doc redeem in a liquidation event\n   */\n  function getLiquidationPrice() public view returns(uint256) {\n    return liquidationPrice;\n  }\n\n  function getBucketNBTC(bytes32 bucket) public view returns(uint256) {\n    return bproxManager.getBucketNBTC(bucket);\n  }\n\n  function getBucketNBPro(bytes32 bucket) public view returns(uint256) {\n    return bproxManager.getBucketNBPro(bucket);\n  }\n\n  function getBucketNDoc(bytes32 bucket) public view returns(uint256) {\n    return bproxManager.getBucketNDoc(bucket);\n  }\n\n  function getBucketCobj(bytes32 bucket) public view returns(uint256) {\n    return bproxManager.getBucketCobj(bucket);\n  }\n\n  function getInrateBag(bytes32 bucket) public view returns(uint256) {\n    return bproxManager.getInrateBag(bucket);\n  }\n\n  /**********************\n    BTC PRICE PROVIDER\n   *********************/\n\n  function getBcons() public view returns(uint256) {\n    return Math.min(getBitcoinPrice(), getBitcoinMovingAverage());\n  }\n\n  function getBitcoinPrice() public view returns(uint256) {\n    (bytes32 price, bool has) = btcPriceProvider.peek();\n    require(has, \"Oracle have no Bitcoin Price\");\n\n    return uint256(price);\n  }\n\n\n  function calculateBitcoinMovingAverage() public {\n    setBitcoinMovingAverage(getBitcoinPrice());\n  }\n\n\n\n  /**\n   * @dev return the value of the liq threshold configuration param\n   * @return liq threshold, currently 1.04\n   */\n  function getLiq() public view returns(uint256) {\n    return liq;\n  }\n\n  /**\n   * @dev sets the value of the liq threshold configuration param\n   * @param _liq liquidation threshold\n   */\n  function setLiq(uint _liq) public onlyAuthorizedChanger(){\n    liq = _liq;\n  }\n\n  /**\n   * @dev return the value of the utpdu threshold configuration param\n   * @return utpdu Universal TPro discount sales coverage threshold\n   */\n  function getUtpdu() public view returns(uint256) {\n    return utpdu;\n  }\n\n  /**\n   * @dev sets the value of the utpdu threshold configuration param\n   * @param _utpdu Universal TPro discount sales coverage threshold\n   */\n  function setUtpdu(uint _utpdu) public onlyAuthorizedChanger(){\n    utpdu = _utpdu;\n  }\n\n  /**\n   * @dev returns the relation between DOC and dollar. By default it is 1.\n   * @return peg relation between DOC and dollar\n   */\n  function getPeg() public view returns(uint256) {\n    return peg;\n  }\n\n  /**\n   * @dev sets the relation between DOC and dollar. By default it is 1.\n   * @param _peg relation between DOC and dollar\n   */\n  function setPeg(uint _peg) public onlyAuthorizedChanger(){\n    peg = _peg;\n  }\n\n  function nextState() public {\n    // There is no coming back from Liquidation\n    if (state == States.Liquidated)\n      return;\n\n    States prevState = state;\n    calculateBitcoinMovingAverage();\n    uint256 cov = globalCoverage();\n    if (cov <= liq) {\n      setLiquidationPrice();\n      state = States.Liquidated;\n    } else if (cov > liq && cov <= utpdu) {\n      state = States.BProDiscount;\n    } else if (cov > utpdu && cov <= cobj()) {\n      state = States.BelowCobj;\n    } else {\n      state = States.AboveCobj;\n    }\n\n    if (prevState != state)\n      emit StateTransition(state);\n  }\n\n\n  /**\n    @dev Calculates price at liquidation event as the relation between\n    the doc total supply and the amount of RBTC available to distribute\n   */\n  function setLiquidationPrice() internal {\n    // When coverage is below 1, the amount to\n    // distribute is all the RBTC in the contract\n    uint256 rbtcAvailable = Math.min(globalLockedBitcoin(), rbtcInSystem);\n\n    liquidationPrice = mocLibConfig.liquidationPrice(rbtcAvailable, docTotalSupply());\n  }\n\n  function initializeValues(\n    address _governor,\n    address _btcPriceProvider,\n    uint256 _liq,\n    uint256 _utpdu,\n    uint256 _maxDiscRate,\n    uint256 _dayBlockSpan,\n    uint256 _maxMintBPro) internal {\n    liq = _liq;\n    utpdu = _utpdu;\n    bproMaxDiscountRate = _maxDiscRate;\n    dayBlockSpan = _dayBlockSpan;\n    governor = IGovernor(_governor);\n    btcPriceProvider = BtcPriceProvider(_btcPriceProvider);\n    // Default values\n    state = States.AboveCobj;\n    peg = 1;\n    maxMintBPro = _maxMintBPro;\n  }\n\n  function initializeContracts() internal  {\n    mocSettlement = MoCSettlement(connector.mocSettlement());\n    docToken = DocToken(connector.docToken());\n    bproToken = BProToken(connector.bproToken());\n    bproxManager = MoCBProxManager(connector.bproxManager());\n    mocConverter = MoCConverter(connector.mocConverter());\n  }\n\n  /************************************/\n  /***** UPGRADE v017       ***********/\n  /************************************/\n\n  /** START UPDATE V017: 01/11/2019 **/\n\n  // Max value posible to mint of BPro\n  uint256 public maxMintBPro;\n\n  /**\n  * @param _maxMintBPro [using mocPrecision]\n  **/\n  function setMaxMintBPro(uint256 _maxMintBPro) public onlyAuthorizedChanger() {\n    maxMintBPro = _maxMintBPro;\n  }\n\n   /**\n   * @dev return Max value posible to mint of BPro\n   * @return maxMintBPro\n   */\n  function getMaxMintBPro() public view returns(uint256) {\n    return maxMintBPro;\n  }\n\n  /**\n  * @dev return the bpro available to mint\n  * @return maxMintBProAvalaible  [using mocPrecision]\n  */\n  function maxMintBProAvalaible() public view returns(uint256) {\n\n    uint256 totalBPro = bproTotalSupply();\n    uint256 maxiMintBPro = getMaxMintBPro();\n\n    if (totalBPro >= maxiMintBPro) {\n      return 0;\n    }\n\n    uint256 availableMintBPro = maxiMintBPro.sub(totalBPro);\n\n    return availableMintBPro;\n  }\n\n  /** END UPDATE V017: 01/11/2019 **/\n\n  // Leave a gap betweeen inherited contracts variables in order to be\n  // able to add more variables in them later\n  uint256[50] private upgradeGap;\n}\n",
  "sourcePath": "/home/bruno/Proyectos/Cripto/MoC/main-RBTC-contract/contracts/MoCState.sol",
  "compiler": {
    "name": "solc",
    "version": "0.5.8+commit.23d335f2.Emscripten.clang"
  },
  "schemaVersion": "3.0.11",
  "updatedAt": "2020-05-02T13:11:46.682Z",
  "devdoc": {
    "methods": {
      "absoluteMaxBPro()": {
        "details": "ABSOLUTE maxBPro",
        "return": "maxDoc to issue [using mocPrecision]"
      },
      "absoluteMaxDoc()": {
        "details": "ABSOLUTE maxDoc",
        "return": "maxDoc to issue [using mocPrecision]"
      },
      "abundanceRatio(uint256)": {
        "details": "Abundance ratio, receives tha amount of doc to use the value of doc0 and Doc total supply",
        "return": "abundance ratio [using mocPrecision]"
      },
      "addToRbtcInSystem(uint256)": {
        "details": "btcAmount Add the btc amount passed by parameter to the total Bitcoin Amount",
        "params": {
          "btcAmount": "Amount that will be added to rbtcInSystem"
        }
      },
      "blocksToSettlement()": {
        "details": "Number of blocks to settlement"
      },
      "bproDiscountPrice()": {
        "details": "BTC price of BPro with spot discount applied",
        "return": "the BPro Tec Price [using reservePrecision]"
      },
      "bproSpotDiscountRate()": {
        "details": "GLOBAL BTC Discount rate to apply to BProPrice.",
        "return": "BPro discount rate [using DISCOUNT_PRECISION]."
      },
      "bproTecPrice()": {
        "details": "BTC price of BPro",
        "return": "the BPro Tec Price [using reservePrecision]"
      },
      "bproTotalSupply()": {
        "details": "All BPros in circulation"
      },
      "bproUsdPrice()": {
        "details": "BPro USD PRICE",
        "return": "the BPro USD Price [using mocPrecision]"
      },
      "bproxBProPrice(bytes32)": {
        "details": "BUCKET BProx price in BPro",
        "params": {
          "bucket": "Name of the bucket used"
        },
        "return": "BProx BPro Price [using mocPrecision]"
      },
      "bucketBProTecPrice(bytes32)": {
        "details": "BUCKET BTC price of BPro",
        "params": {
          "bucket": "Name of the bucket used"
        },
        "return": "the BPro Tec Price [using reservePrecision]"
      },
      "changeIGovernor(address)": {
        "params": {
          "newIGovernor": "New governor address"
        }
      },
      "cobj()": {
        "details": "Target coverage for complete system"
      },
      "collateralRbtcInSystem()": {
        "details": "Amount of Bitcoins in the system excluding BTCx values and interests holdings"
      },
      "coverage(bytes32)": {
        "details": "BUCKET Coverage",
        "params": {
          "bucket": "Name of the bucket used"
        },
        "return": "coverage [using coveragePrecision]"
      },
      "currentAbundanceRatio()": {
        "details": "Relation between docs in bucket 0 and Doc total supply",
        "return": "abundance ratio [using mocPrecision]"
      },
      "daysToSettlement()": {
        "details": "Calculates the number of days to next settlement based dayBlockSpan"
      },
      "docTotalSupply()": {
        "details": "All docs in circulation"
      },
      "freeDoc()": {
        "return": "amount of docs in bucket 0, that can be redeemed outside of settlement [using mocPrecision]"
      },
      "getBtcPriceProvider()": {
        "details": "Gets the BTCPriceProviderAddress",
        "return": "btcPriceProvider blocks there are in a day*"
      },
      "getDayBlockSpan()": {
        "details": "Gets how many blocks there are in a day",
        "return": "blocks there are in a day"
      },
      "getLiq()": {
        "details": "return the value of the liq threshold configuration param",
        "return": "liq threshold, currently 1.04"
      },
      "getLiquidationPrice()": {
        "details": "Returns the price to use for doc redeem in a liquidation event"
      },
      "getMaxDiscountRate()": {
        "details": "return the value of the BPro max discount rate configuration param",
        "return": "bproMaxDiscountRate BPro max discount rate"
      },
      "getMaxMintBPro()": {
        "details": "return Max value posible to mint of BPro",
        "return": "maxMintBPro"
      },
      "getPeg()": {
        "details": "returns the relation between DOC and dollar. By default it is 1.",
        "return": "peg relation between DOC and dollar"
      },
      "getRbtcInBitPro(bytes32)": {
        "details": "Gets RBTC in BitPro within specified bucket",
        "params": {
          "bucket": "Name of the bucket used"
        },
        "return": "Bitcoin amount of BitPro in Bucket [using reservePrecision]"
      },
      "getRbtcRemainder()": {
        "details": "Gets the RBTC in the contract that not corresponds to Doc collateral",
        "return": "RBTC remainder [using reservePrecision]"
      },
      "getUtpdu()": {
        "details": "return the value of the utpdu threshold configuration param",
        "return": "utpdu Universal TPro discount sales coverage threshold"
      },
      "globalCoverage()": {
        "details": "GLOBAL Coverage",
        "return": "coverage [using mocPrecision]"
      },
      "globalLockedBitcoin()": {
        "details": "GLOBAL lockedBitcoin",
        "return": "lockedBitcoin amount [using reservePrecision]"
      },
      "globalMaxBPro()": {
        "details": "GLOBAL maxBPro",
        "return": "maxBPro for redeem [using reservePrecision]"
      },
      "globalMaxDoc()": {
        "details": "GLOBAL maxDoc",
        "return": "abundance ratio [using mocPrecision]"
      },
      "initialize(address)": {
        "details": "This initialize replaces the constructor but it is not called automatically. It is necessary because of the upgradeability of the contracts",
        "params": {
          "_governor": "Governor address"
        }
      },
      "isLiquidationReached()": {
        "details": "Verifies if forced liquidation is reached checking if globalCoverage <= liquidation (currently 1.04)",
        "return": "true if liquidation state is reached, false otherwise"
      },
      "leverage(bytes32)": {
        "details": "BUCKET Leverage",
        "params": {
          "bucket": "Name of the bucket used"
        },
        "return": "coverage [using mocPrecision]"
      },
      "lockedBitcoin(bytes32)": {
        "details": "BUCKET lockedBitcoin",
        "params": {
          "bucket": "Name of the bucket used"
        },
        "return": "lockedBitcoin amount [using reservePrecision]"
      },
      "maxBPro(bytes32)": {
        "details": "BUCKET maxBPro to redeem / mint",
        "params": {
          "bucket": "Name of the bucket used"
        },
        "return": "maxBPro for redeem [using mocPrecision]"
      },
      "maxBProWithDiscount()": {
        "details": "DISCOUNT maxBPro",
        "return": "maxBPro for mint with discount [using mocPrecision]"
      },
      "maxBProx(bytes32)": {
        "details": "GLOBAL max bprox to mint",
        "params": {
          "bucket": "Name of the bucket used"
        },
        "return": "maxBProx [using reservePrecision]"
      },
      "maxBProxBProValue(bytes32)": {
        "details": "GLOBAL max bprox to mint",
        "params": {
          "bucket": "Name of the bucket used"
        },
        "return": "max BPro allowed to be spent to mint BProx [using reservePrecision]*"
      },
      "maxBProxBtcValue(bytes32)": {
        "details": "GLOBAL max bprox to mint",
        "params": {
          "bucket": "Name of the bucket used"
        },
        "return": "maxBProx BTC value to mint [using reservePrecision]"
      },
      "maxDoc(bytes32)": {
        "details": "BUCKET maxDoc",
        "return": "abundance ratio [using mocPrecision]"
      },
      "maxMintBProAvalaible()": {
        "details": "return the bpro available to mint",
        "return": "maxMintBProAvalaible  [using mocPrecision]"
      },
      "setBtcPriceProvider(address)": {
        "details": "Sets a new BTCProvider contract",
        "params": {
          "btcProviderAddress": "blocks there are in a day*"
        }
      },
      "setDayBlockSpan(uint256)": {
        "details": "Defines how many blocks there are in a day",
        "params": {
          "blockSpan": "blocks there are in a day*"
        }
      },
      "setEmaCalculationBlockSpan(uint256)": {
        "params": {
          "blockSpan": "Defines how many blocks should pass between BMA calculations*"
        }
      },
      "setLiq(uint256)": {
        "details": "sets the value of the liq threshold configuration param",
        "params": {
          "_liq": "liquidation threshold"
        }
      },
      "setMaxDiscountRate(uint256)": {
        "params": {
          "rate": "Discount rate at liquidation level [using mocPrecision]*"
        }
      },
      "setMaxMintBPro(uint256)": {
        "params": {
          "_maxMintBPro": "[using mocPrecision]*"
        }
      },
      "setPeg(uint256)": {
        "details": "sets the relation between DOC and dollar. By default it is 1.",
        "params": {
          "_peg": "relation between DOC and dollar"
        }
      },
      "setUtpdu(uint256)": {
        "details": "sets the value of the utpdu threshold configuration param",
        "params": {
          "_utpdu": "Universal TPro discount sales coverage threshold"
        }
      },
      "subtractRbtcFromSystem(uint256)": {
        "details": "Subtract the btc amount passed by parameter to the total Bitcoin Amount",
        "params": {
          "btcAmount": "Amount that will be subtract to rbtcInSystem"
        }
      }
    }
  },
  "userdoc": {
    "methods": {
      "changeIGovernor(address)": {
        "notice": "Change the contract's governor. Should be called through the old governance system"
      },
      "getBcons()": {
        "notice": "******************** BTC PRICE PROVIDER********************"
      },
      "initialize(address)": {
        "notice": "Initialize the contract with the basic settings"
      }
    }
  }
}